:020000040800F2
:100000000000012029220008E5070008E707000892
:10001000E9070008EB070008ED07000800000000F2
:10002000000000000000000000000000EF070008D2
:10003000F107000800000000F3070008F5070008BA
:100040007922000879220008792200087922000824
:100050007922000879220008792200087922000814
:100060007922000879220008792200087922000804
:1000700079220008792200087922000879220008F4
:100080007922000879220008792200080000000087
:1000900000000000000000000000000079220008BD
:1000A00079220008792200087922000879220008C4
:1000B00079220008792200087922000879220008B4
:1000C00079220008792200087922000879220008A4
:1000D0007922000879220008792200080000000037
:1000E0007922000879220008792200080000000027
:1000F000000000000000000000000000792200085D
:100100000000000079220008792200087922000806
:1001100000000000000000000000000000000000DF
:100120007922000879220008792200087922000843
:10013000792200080000000000000000000000001C
:10014000000000000000000000000000792200080C
:100150007922000879220008792200087922000813
:100160007922000879220008000000000000000049
:10017000000000000000000000000000000000007F
:1001800000000000792200080000000000000000CC
:0401900079220008C8
:1001940053B94AB9002908BF00281CBF4FF0FF31EA
:1001A4004FF0FF3000F00CB8ADF1080C6DE904CE4F
:1001B40002F08EF8DDF804E0DDE9022304B07047B4
:1001C400704700BF10B5054C237833B9044B13B105
:1001D4000448AFF300800123237010BD0C000020FD
:1001E400000000007425000808B5034B1BB1034947
:1001F4000348AFF3008008BD000000001000002099
:1002040074250008F0B58BB0002405940694079477
:100214000894099401942B4B1A6B42F004021A635C
:100224001A6B02F004020192019A02941A6B42F0D2
:1002340080021A631A6B02F080020292029A0394FB
:100244001A6B42F001021A631A6B02F00102039264
:10025400039A04941A6B42F002021A631B6B03F0B4
:1002640002030493049B184D22461A21284600F0E9
:100274006DFC164E224640F20141304600F066FC09
:100284001A230593012706970794089405A928467D
:1002940000F078FB40F20143059306970794089415
:1002A40005A9304600F06EFB4FF4807305930223DA
:1002B400069307940894099405A9284600F062FB64
:1002C4000BB0F0BD003802400000024000040240C0
:1002D40072B6FEE708B50A480A4B03600A4B43604E
:1002E40000238360C3604FF48042026143618361F1
:1002F400C361036200F030FC00B908BDFFF7E8FFFA
:100304002C01002000540040A086010008B50B48D1
:100314000B4B03604FF40073436000238360C3609E
:1003240003614FF4FA5242618361C361036200F0D6
:10033400F1FC00B908BDFFF7CBFF00BFE4000020CB
:100344000038004008B50D480D4B03604FF482732C
:10035400436000238360C360036143614FF4007210
:100364008261C3610362436283620A23C36201F050
:1003740041FE00B908BDFFF7ABFF00BF6C000020D1
:100384000030014008B50B480B4B03604FF4E133D8
:10039400436000238360C36003610C2242614FF415
:1003A40040728261C36101F00DFF00B908BDFFF71F
:1003B4008FFF00BF280000200010014010B590B04E
:1003C40000240B940C940D940E940F940A942822F8
:1003D4002146684601F04FFF2B482C4B03604460D4
:1003E4007F238360FF23C3604FF4001303614FF442
:1003F400801343614FF48023836101F03EFC0028A5
:1004040039D100238DF82C308DF82D308DF82E3015
:100414000E930F9301220BA91B4801F081FC60BBD2
:1004240001228DF828208DF829208DF82A20002318
:100434008DF82B300AA9144801F0D2FCF8B9002336
:100444008DF800308DF8013010228DF802200193D0
:10045400039304930E4A05920693079301228DF8A1
:1004640020204FF4807309936946074801F006FD84
:1004740038B910B010BDFFF72BFFFFF729FFFFF7C6
:1004840027FFFFF725FF00BFC4000020002800401D
:100494000080808000B595B03022002108A801F0CA
:1004A400EAFE0023039304930593069307930193B1
:1004B400254A116C41F080511164126C02F0805293
:1004C4000192019A0293214A136823F4404343F4AE
:1004D40000431360136803F440430293029B0B230D
:1004E40008934FF48033099301230B9310220C9249
:1004F4000D9302230E934FF480020F92192210924F
:10050400A822119212930423139308A800F000FF69
:10051400A8B90F23039302210491002305934FF4F8
:1005240080520692079303A801F090F948B900227B
:100534001146104601F0E8F815B05DF804FBFFF72A
:10054400C7FEFFF7C5FE00BF003802400070004040
:1005540008B500F081F9FFF79DFFFFF753FEFFF7A1
:10056400B9FEFFF7D3FEFFF7EDFEFFF70BFFFFF732
:1005740025FFFEE782B0002100910B4B5A6C42F438
:1005840080425A645A6C02F480420092009A0191AB
:100594001A6C42F080521A641B6C03F0805301936E
:1005A400019B02B0704700BF0038024030B589B0EB
:1005B4000023039304930593069307930268144B53
:1005C4009A4201D009B030BD00250195114C236B2E
:1005D40043F002032363236B03F002030193019BA3
:1005E400C023039312230493032306930423079342
:1005F40003A9094800F0C6F90295236C43F40013DB
:100604002364236C03F400130293029BDAE700BF14
:1006140000540040003802400004024000B58DB090
:1006240000230793089309930A930B93029303936C
:1006340004930593069302681B4B9A4202D00DB0B3
:100644005DF804FB012302936423039304230493BE
:1006540002A801F0D1F918BB00220092134B196CC7
:1006640041F480411964196C01F4804100910099AE
:100674000192196B41F0020119631B6B03F0020331
:100684000193019B4FF4304307930223089309928B
:100694000A9205230B9307A9054800F073F9CEE7E6
:1006A400FFF716FED8E700BF0038004000380240CC
:1006B4000004024000B587B0002301930293039322
:1006C4000493059302680B4B9A4202D007B05DF87D
:1006D40004FB022301934FF40073049301A801F077
:1006E4008BF920B9044B0122C3F83C2EEEE7FFF747
:1006F400EFFDF7E7002800400000474200B589B04D
:100704000023039304930593069307930268154B00
:100714009A4202D009B05DF804FB0021019103F56F
:1007240084335A6C42F480525A645A6C02F48052F4
:100734000192019A02911A6B42F001021A631B6B37
:1007440003F001030293029BE02303930223049327
:10075400032306930523079303A9034800F012F922
:10076400D8E700BF003001400000024000B589B066
:10077400002303930493059306930793026803F1FC
:10078400804303F588339A4202D009B05DF804FB34
:100794000021019103F594335A6C42F010025A641B
:1007A4005A6C02F010020192019A02911A6B42F003
:1007B40001021A631B6B03F001030293029B4FF4C3
:1007C400F05303930223049303230693072307930D
:1007D40003A9024800F0D6F8D7E700BF00000240A2
:1007E400FEE7FEE7FEE7FEE7FEE770477047704767
:1007F40008B500F04BF808BD034AD2F8883043F43A
:100804007003C2F88830704700ED00E010B504466C
:100814000E4B1A784FF47A73B3FBF2F30C4A106858
:10082400B0FBF3F000F09AF868B90F2C01D901205D
:100834000AE0002221464FF0FF3000F07FF8054B1C
:100844001C60002000E0012010BD00BF0400002057
:10085400000000200800002008B50B4B1A6842F481
:1008640000721A601A6842F480621A601A6842F4CC
:1008740080721A60032000F04FF80F20FFF7C6FFC4
:10088400FFF778FE002008BD003C0240034A1168CF
:10089400034B1B780B441360704700BF800100209A
:1008A40004000020014B1868704700BF800100203D
:1008B400002808DB0901C9B200F1604000F561407D
:1008C40080F80013704700F00F000901C9B2014B12
:1008D4001954704714ED00E000B500F00700C0F1B2
:1008E400070CBCF1040F28BF4FF0040C031D062BAA
:1008F4000FD9C31E4FF0FF3E0EFA0CF021EA00019F
:1009040099400EFA03FE22EA0E0241EA02005DF863
:1009140004FB0023EEE70000074AD36823F4E063F6
:100924001B041B0C000200F4E060034343F0BF63AC
:1009340043F40033D360704700ED00E010B5044683
:10094400054BD868C0F30220FFF7C6FF01462046D6
:10095400FFF7AEFF10BD00BF00ED00E00138B0F1BD
:10096400807F0BD24FF0E0235861054AF02182F8D2
:1009740023100020986107221A61704701207047F4
:1009840000ED00E000230F2B00F2D78070B582B099
:1009940065E085684FEA430E032404FA0EF425EA61
:1009A4000405CC6804FA0EF42C438460446824EAF9
:1009B40002044A68C2F300129A40224342605CE097
:1009C400DC08083450F8242003F00705AD004FF08C
:1009D4000F0E0EFA05FE22EA0E0E0A69AA4042EA3A
:1009E4000E0240F824205CE0042200E0002202FA17
:1009F4000EF22A430234514D45F82420504A94689B
:100A04006FEA0C0224EA0C054E6816F4801F01D02C
:100A14004CEA04054A4CA560E46802EA04054E6801
:100A240016F4001F01D04CEA0405454CE5606468E7
:100A340002EA04054E6816F4003F01D04CEA0405AE
:100A44003F4C6560246822404D6815F4803F01D016
:100A54004CEA04023A4C226001330F2B6BD801227A
:100A64009A400C6804EA020C32EA0404F4D14C689B
:100A740004F00304013C012C8BD94A6802F0030200
:100A8400032A09D0C4685D000322AA4024EA0204B0
:100A94008A68AA402243C2604A6802F00302022A1A
:100AA4008ED004684FEA430E032202FA0EF224EABF
:100AB40002044A6802F0030202FA0EF222430260C0
:100AC4004A6812F4403FC7D0002201921D4A546C78
:100AD40044F480445464526C02F480420192019ABA
:100AE4009C08A51C154A52F8255003F0030E4FEA42
:100AF4008E0E0F2202FA0EF225EA0205124A9042E5
:100B04003FF474AF02F5806290420ED002F5806229
:100B140090420CD002F5806290420AD002F58062C5
:100B240090423FF461AF072261E701225FE70222AE
:100B34005DE703225BE702B070BD704700380140F7
:100B4400003C014000380240000002400AB18161CB
:100B54007047090481617047002800F0CC8070B5AB
:100B6400044690F83D30002B77D0242384F83D30A0
:100B74002268136823F0010313602268136843F4A6
:100B8400004313602268136823F40043136000F0E9
:100B940013FF62685A4B9A4264D85A4B98428CBFEE
:100BA40000230123002B40F0A8805749A1FB00310A
:100BB4008B0C25686A6822F03F0242EA91426A601F
:100BC40021680A6A22F03F0266684D4DAE424FD852
:100BD400013313430B622168CA6922F44F4222F0A5
:100BE400FF026568464B9D424CD8431E6D00B3FB23
:100BF400F5F3013340F6FC70034278D0C3F30B03E2
:100C04001A43CA6121680B6823F0C003E269206AB1
:100C1400024313430B6021688B6823F4034323F0DE
:100C2400FF032269E068024313438B602168CB68A9
:100C340023F0FF036269A06902431343CB60226877
:100C4400136843F00103136000202064202384F818
:100C54003D30206384F83E0070BD80F83C30FFF7DF
:100C6400A5FC82E7294B98428CBF0023012399E716
:100C74004FF4967505FB03F3254DA5FB03539B0920
:100C84000133A6E7A668BEB9431E05EB450CB3FBCA
:100C9400FCF30133C3F30B03B3FA83F35B0943BBE4
:100CA400C6B9431E05EB4505B3FBF5F30133C3F3A6
:100CB4000B0343F40043A3E7431E05EB850C0CEB45
:100CC4008C0CB3FBFCF30133C3F30B03B3FA83F3D0
:100CD4005B09E4E7431E05EB850505EB8505B3FBDE
:100CE400F5F30133C3F30B0343F4404388E70423D0
:100CF40086E7012384E7012070470120ACE700BFA9
:100D0400A08601007F841E0083DE1B43FF083D0094
:100D1400D34D6210002800F0BF8038B5044690F827
:100D24004130002B51D0022284F841202168CB6944
:100D340023F47B6323F00F03CB6123681A62636996
:100D4400934263D0E368002B46D11025A368202B7F
:100D540000D86D00012000F005FF2369B3F5007F82
:100D64003CD0B0FBF5F000EB800043006269B3FBBC
:100D7400F2F30533494AA2FB0323C3F3C002C2EBD7
:100D8400D3035B0811029A1EFD2A41D822690A4343
:100D940021681A430A622168CB6923F47B6323F038
:100DA4000F036268A0680243E0680243A06902433B
:100DB400134343F40063CB61236A012B2ED000203C
:100DC4006064012384F8413038BD80F84030344BEE
:100DD4004363FFF723FCA6E72025B7E7E36853B195
:100DE400AD00B0FBF5F000EB800043006269B3FB9B
:100DF400F2F30533BEE7ED00B0FBF5F000EB800045
:100E040043006269B3FBF2F30533B3E70021BAE7A9
:100E1400636C43F0100363640120D5E7214B6363E3
:100E24002268214B9A421FD04FF04022D36923F409
:100E34007B6323F00F03D36122681B4B9A4215D0C6
:100E44004FF0402302221A622268174B9A4210D0B4
:100E54004FF04025EB699BB26268B2F5007F0AD07F
:100E6400C2B94FF4807008E0104ADFE7A3F580634D
:100E7400E8E70E4DEEE74FF48070B4F808C0A1899E
:100E8400228B40EA0C0001430A43134343F40063FA
:100E9400EB6194E70020F0E701207047CDCCCCCC87
:100EA4002B0F00083D1100080038004000340040BA
:100EB400704708B5426A03681288DA60436A0233ED
:100EC4004362438D9BB2013B9BB24385438D9BB2EE
:100ED40003B108BD0268536823F0A00353600123E3
:100EE40080F84130FFF7E4FFF3E7704708B5036883
:100EF400DA68C36A1A80C36A0233C362438E9BB240
:100F0400013B9BB24386438E9BB203B108BD02688A
:100F1400536823F060035360012380F84130FFF7E6
:100F2400E4FFF3E7704710B584B0044602689368A1
:100F3400039390F84130DBB2042B06D094F841308F
:100F4400DBB2032B2CD004B010BD039B13F0010FB4
:100F540003D0536813F0400F1FD1039B13F0400FCD
:100F6400ECD023685A6812F0200FE7D05A6822F0B8
:100F740060025A60002301932368DA6801929B6837
:100F84000193019B012384F84130636C43F0020315
:100F940063642046FFF7C6FFD0E7FFF7A7FFDCE74F
:100FA400039B13F0020F04D023685B6813F0800FD7
:100FB4001DD1039B13F0080FC5D023685A6812F0A3
:100FC400200FC0D05A6822F0A0025A600023029376
:100FD40023689B680293029B012384F84130636C6D
:100FE40043F0040363642046FFF79CFFABE720460D
:100FF400FFF75FFFDDE7704708B5436A9A1C42625A
:1010040002681B88D360438D9BB2013B9BB243852E
:10101400438D9BB23BB90268536823F0A00353602D
:10102400438E9BB203B108BD012380F84130FFF722
:10103400E2FFF8E708B50268154B9A421CD04FF05E
:101044004023DA68C36A991CC1621A80438E9BB23A
:10105400013B9BB24386438E9BB263B902680C4B3F
:101064009A420CD04FF04022536823F0600353603F
:10107400438D9BB22BB108BDA3F58063E1E7054A1C
:10108400F2E7012380F84130FFF7B5FFF3E700BF33
:10109400003800400034004008B5436A9A1C42629C
:1010A4001A880168134B994218D04FF04023DA6034
:1010B400438D9BB2013B9BB24385438D9BB263B985
:1010C40002680C4B9A420CD04FF04022536823F034
:1010D400A0035360438E9BB22BB108BDA3F580637C
:1010E400E5E7054AF2E7012380F84130FFF783FF83
:1010F400F3E700BF003800400034004008B503683F
:10110400DA68C36A991CC1621A80438E9BB2013BA0
:101114009BB24386438E9BB23BB90268536823F06B
:1011240060035360438D9BB203B108BD012380F873
:101134004130FFF760FFF8E710B586B00446036856
:101144009A680592704A93426FD04FF0402291689A
:1011540004915B680393536802936368B3F5007F5B
:1011640001D0002B70D1059B13F0020F03D0039B19
:1011740013F0800F5CD1049B13F0010F03D0029B8A
:1011840013F0400F58D1049B13F0400F24D0029B5E
:1011940013F0200F20D022685B4B9A4250D04FF0BE
:1011A4004022536823F0600353602268536823F09D
:1011B400A0035360002300932368DA6800929B68BD
:1011C4000093009B012384F84130636C43F00203D5
:1011D40063642046FFF7A6FE059B13F0080F22D098
:1011E400039B13F0200F1ED02268536823F0A00342
:1011F40053602268444B9A4224D04FF040225368F3
:1012040023F0600353600023019323689B680193D8
:10121400019B012384F84130636C43F0040363644D
:101224002046FFF77FFE06B010BDA2F580628EE770
:101234002046FFF7E1FE9EE72046FFF7FBFEA2E70C
:10124400324AAEE7314ADAE7049B13F0020F03D0C7
:10125400029B13F0800F4AD1059B13F0010F03D0BA
:10126400039B13F0400F46D1059B13F0400F1CD095
:10127400039B13F0200F18D02268536823F06003F7
:1012840053602268204B9A4239D04FF04022536871
:1012940023F0A0035360012384F84130636C43F0CE
:1012A400020363642046FFF73DFE049B13F0080F1E
:1012B400B9D0029B13F0200FB5D02268124B9A428A
:1012C4001FD04FF04022536823F0A00353602268DC
:1012D400536823F060035360012384F84130636C46
:1012E40043F0040363642046FFF71CFE9BE720469B
:1012F400FFF7D2FEB0E72046FFF700FFB4E7034A4A
:10130400C5E7024ADFE700BF003800400034004070
:10131400002800F0E08170B582B00446036813F041
:10132400010F3BD09F4B9B6803F00C03042B2CD084
:101334009C4B9B6803F00C03082B21D06368B3F526
:10134400803F4FD0B3F5A02F52D0964B1A6822F4A9
:1013540080321A601A6822F480221A606368002BB3
:1013640050D0FFF79FFA05468E4B1B6813F4003FDD
:1013740014D1FFF797FA401B6428F5D90320B1E193
:10138400884B5B6813F4800FD8D0864B1B6813F42A
:10139400003F03D06368002B00F09F81236813F0A3
:1013A400020F54D07F4B9B6813F00C0F3ED07D4B43
:1013B4009B6803F00C03082B33D0E368002B68D040
:1013C400794B01221A60FFF76DFA0546754B1B68CD
:1013D40013F0020F54D1FFF765FA401B0228F5D928
:1013E40003207FE16F4A136843F480331360B5E749
:1013F4006C4B1A6842F480221A601A6842F48032F4
:101404001A60ABE7FFF74EFA0546664B1B6813F408
:10141400003FC3D0FFF746FA401B6428F5D90320E8
:1014240060E1604B5B6813F4800FC6D15D4B1B68B1
:1014340013F0020F03D0E368012B40F05081594AA6
:10144400136823F0F803216943EAC1031360236896
:1014540013F0080F42D063696BB3534B0122C3F8F6
:10146400802EFFF71FFA05464E4B5B6F13F0020FF9
:1014740034D1FFF717FA401B0228F5D9032031E1D4
:10148400484A136823F0F803216943EAC10313604F
:10149400DDE7454B00221A60FFF704FA0546414B8D
:1014A4001B6813F0020FD2D0FFF7FCF9401B02288F
:1014B400F5D9032016E13C4B0022C3F8802EFFF738
:1014C400F1F90546374B5B6F13F0020F06D0FFF7B7
:1014D400E9F9401B0228F5D9032003E1236813F03E
:1014E400040F77D02F4B1B6C13F0805F33D1002394
:1014F40001932C4B1A6C42F080521A641B6C03F05B
:1015040080530193019B0125284B1B6813F4807FB2
:1015140023D0A368012B34D0052B38D0214B1A6F6C
:1015240022F001021A671A6F22F004021A67A368F4
:10153400002B3DD0FFF7B6F906461A4B1B6F13F08C
:10154400020F46D1FFF7AEF9801B41F2883398426F
:10155400F3D90320C6E00025D6E7144A136843F400
:1015640080731360FFF79EF90646104B1B6813F453
:10157400807FCED1FFF796F9801B0228F5D903208E
:10158400B0E0084A136F43F001031367CFE7054B3C
:101594001A6F42F004021A671A6F42F001021A67C6
:1015A400C5E700BF00380240000047420070004019
:1015B400FFF778F90646524B1B6F13F0020F08D061
:1015C400FFF770F9801B41F288339842F3D9032066
:1015D40088E0EDB9A369002B00F08380484A926843
:1015E40002F00C02082A51D0022B17D0454B0022DE
:1015F4001A66FFF757F90446414B1B6813F0007F46
:1016040042D0FFF74FF9001B0228F5D9032069E007
:101614003B4A136C23F080531364DBE7394B0022FD
:101624001A66FFF73FF90546354B1B6813F0007F38
:1016340006D0FFF737F9401B0228F5D9032051E003
:10164400E369226A1343626A43EA8213A26A520874
:10165400013A43EA0243E26A43EA0263284A5360D6
:10166400284B01221A66FFF71DF90446244B1B6818
:1016740013F0007F06D1FFF715F9001B0228F5D9F6
:1016840003202FE000202DE000202BE0012B2BD0A5
:101694001B4B5B6803F48001E269914226D103F09D
:1016A4003F02216A8A4223D1616A47F6C0721A4016
:1016B400B2EB811F1ED103F44031A26A5208013AF1
:1016C400B1EB024F18D103F07063E26AB3EB026F1F
:1016D40014D1002006E001207047012002E001201F
:1016E40000E0002002B070BD0120FBE70120F9E713
:1016F4000120F7E70120F5E70120F3E70120F1E7F6
:10170400003802400000474270B588B00C461546C8
:1017140000BB00230193204E326B42F0010232637E
:10172400326B02F001020192019A4FF4807203922B
:1017340002220492032206920593079303A91748F1
:10174400FFF720F9B36823F0EC6325431D43B5602C
:1017540008B070BD002302930F4E326B42F00402B6
:101764003263326B02F004020292029A4FF4007266
:10177400039202220492032206920593079303A97B
:101784000748FFF7FFF8B36823F0784344EAC50439
:101794001C43B460DCE700BF003802400000024094
:1017A4000008024008B5264B9B6803F00C03042B89
:1017B40041D0082B41D1224B5A6802F03F025B68AA
:1017C40013F4800F12D01E4B5968C1F388111D48C1
:1017D4000023A1FB0001FEF7DBFC194B5B68C3F39C
:1017E400014301335B00B0FBF3F008BD144B5868B0
:1017F400C0F388104FEA401CBCEB000C6EEB0E0EDD
:101804004FEA8E1343EA9C634FEA8C11B1EB0C014F
:1018140063EB0E03DB0043EA5173C90011EB000CC8
:1018240043F10003990200234FEA8C2041EA9C51C2
:10183400FEF7AEFCD1E70348D7E70348D5E700BF7E
:101844000038024040787D010024F400002800F0B4
:101854009B8070B50D4604464F4B1B6803F007038D
:101864008B4208D2CBB24C4A1370136803F00703BF
:101874008B4240F08B80236813F0020F17D013F0D3
:10188400040F04D0454A936843F4E05393602368FB
:1018940013F0080F04D0414A936843F46043936003
:1018A4003E4A936823F0F003A1680B4393602368D6
:1018B40013F0010F32D06368012B21D09A1E012A44
:1018C40025D9364A126812F0020F61D033498A686A
:1018D40022F0030213438B60FEF7E4FF06462F4B0E
:1018E4009B6803F00C036268B3EB820F16D0FEF71B
:1018F400D9FF801B41F288339842F0D9032042E09B
:10190400264A126812F4003FE0D101203BE0234A4A
:10191400126812F0007FD9D1012034E01E4B1B68FD
:1019240003F00703AB4207D9EAB21B4B1A701B68DA
:1019340003F00703AB422DD1236813F0040F06D044
:10194400164A936823F4E053E1680B4393602368D9
:1019540013F0080F07D0114A936823F460432169F8
:1019640043EAC1039360FFF71DFF0C4B9B68C3F36D
:1019740003130B4AD35CD8400A4B18600A4B18680F
:10198400FEF744FF002070BD012070470120FAE7F4
:101994000120F8E70120F6E7003C0240003802404D
:1019A400942500080000002008000020014B18685E
:1019B400704700BF0000002008B5FFF7F7FF044B95
:1019C4009B68C3F38223034AD35CD84008BD00BF9D
:1019D400003802408C25000808B5FFF7E7FF044BE8
:1019E4009B68C3F34233034AD35CD84008BD00BFAD
:1019F400003802408C25000830B583B004460368E3
:101A040013F0050F0ED1236813F0020F36D12368AB
:101A140013F0080F00F09B80227C4E4BC3F8E021AA
:101A2400002095E04C4B00229A66FEF73BFF0546EA
:101A34004A4B1B6813F0006F06D0FEF733FF431BBD
:101A4400022BF5D9032083E06268A3681B0743EAED
:101A54008213424AC2F884303F4B01229A66FEF751
:101A640021FF05463D4B1B6813F0006FCBD1FEF7F9
:101A740019FF401B0228F5D9032069E000230193D4
:101A8400364B1A6C42F080521A641B6C03F080537C
:101A94000193019B324A136843F480731360FEF789
:101AA40001FF05462E4B1B6813F4807F06D1FEF719
:101AB400F9FE431B022BF5D9032049E0274B1B6F8A
:101AC40013F4407314D0E26802F440729A420FD0C7
:101AD400224B1A6F22F440721F490120C1F8400EB4
:101AE4000020C1F8400E1A671B6F13F0010F12D1CA
:101AF400E36803F44072B2F5407F1DD0174A93683F
:101B040023F4F813936015490B6FE268C2F30B02D8
:101B140013430B677BE7FEF7C5FE05460F4B1B6FB0
:101B240013F0020FE4D1FEF7BDFE401B41F28833EF
:101B34009842F3D903200BE008498A6822F4F8128A
:101B440023F0704323F4407313438B60DBE70020DE
:101B540003B030BD00104742000047420038024045
:101B640000700040012801D000207047164B9B688C
:101B740013F4000303D0012B23D114487047124BF4
:101B84005B6813F4800F14D00F4B5A6802F03F02C5
:101B94000F4BB3FBF2F30C4AD2F88400C0F3881065
:101BA40003FB00F0D2F88430C3F30273B0FBF3F00C
:101BB4007047054B5A6802F03F02064BB3FBF2F341
:101BC400E9E70020704700BF003802400080BB00F6
:101BD40040787D010024F40038B504460268D368D7
:101BE40023F0A003D360FEF75DFE05462368DB689F
:101BF40013F0200F07D1FEF755FE401BB0F57A7F96
:101C0400F4D9032000E0002038BD70B50368DA6819
:101C140012F0400F02D00025284670BD0446DA6851
:101C240042F08002DA60FEF73DFE06460025236896
:101C3400DB6813F0400FEFD1002DEDD1FEF732FE3B
:101C4400831BB3F57A7FF2D9042363770125EEE78A
:101C54000268D36823F08003D36003689B6813F0A1
:101C6400200F01D00020704710B50446FFF7B4FFE1
:101C740010B104236377012010BD002842D010B5B1
:101C84000446437F7BB1022363772368CA225A62E6
:101C9400236853225A622046FFF7B7FF38B12368FE
:101CA400FF225A6210BD0377FEF704FDEBE72268BA
:101CB400936823F4E00323F04003936021688A6867
:101CC4006368206903436069034313438B6023689B
:101CD400E2681A6122681369A16843EA0143136147
:101CE4002046FFF7B5FF0028D9D12268136C23F4EE
:101CF400802313642268136CA1690B4313640123CA
:101D04006377CCE701207047002303E00133DBB2A3
:101D14000A38C0B20928F9D81B01DBB2184370474E
:101D2400037F012B5AD070B504460E460123037776
:101D34000223437732BB03689B6813F0400F01D141
:101D44000023CB703078FFF7DFFF05047078FFF7CE
:101D5400DBFF45EA0025B078FFF7D6FF0543F378AB
:101D640045EA83552368CA225A62236853225A6279
:101D74002046FFF74AFFB8B12368FF225A620023C6
:101D8400237770BD03689B6813F0400F01D10023D3
:101D9400CB70337875782D0245EA0345B3781D433B
:101DA400F37845EA8355DDE7236805F07F3525F0B0
:101DB400FE451D602268936823F4802393602168A4
:101DC4008B68F2683069024313438B602046FFF747
:101DD4003FFF0028D0D101236377CDE7022070476D
:101DE400037F012B48D070B504460E4601230377C8
:101DF40002234377CAB1CB784D782D0245EA0345D7
:101E04008B781D430B7845EA43352368CA225A620E
:101E1400236853225A622046FFF7F7FEF0B1236885
:101E2400FF225A620023237770BD4B7813F0100F02
:101E340003D003F0EF030A334B70F078FFF764FF2D
:101E440005047078FFF760FF45EA0025B078FFF7D6
:101E54005BFF0543337845EA4335D6E7236825F02D
:101E64007F4525F0C0055D602046FFF7F1FE0028A0
:101E7400D5D101236377D2E702207047F8B5037FF9
:101E8400012B00F0B58004460E460123037702239C
:101E94004377002A53D103689B6813F0400F01D1A4
:101EA4000023CB703078FFF72FFF05047078FFF71D
:101EB4002BFF45EA0025B078FFF726FF0543F378AA
:101EC40045EA835596F82000FFF71EFF45EA0065B2
:101ED400F3691D4373691D437768B3691F4323681E
:101EE400CA225A62236853225A62736AB3F5807F06
:101EF4003FD02268936823F4007393602268936848
:101F040023F4005393602268D368DBB263F4207334
:101F1400D360FEF7C7FC06462368DA6812F0020FA6
:101F240056D1FEF7BFFC801BB0F57A7FF4D9236845
:101F3400FF225A62032060770023237757E0036867
:101F44009B6813F0400F01D10023CB703378757870
:101F54002D0245EA0345B3781D43F37845EA8355DA
:101F640096F8203045EA0365F3691D4373691D4300
:101F7400B2E72268936823F48073936022689368BD
:101F840023F4805393602268D368DBB263F4C07394
:101F9400D360FEF787FC06462368DA6812F0010F67
:101FA4000DD1FEF77FFC801BB0F57A7FF4D923684E
:101FB400FF225A62032060770023237717E0DD6154
:101FC40023685F642268936843F48073936007E036
:101FD4001D6223689F642268936843F400739360CE
:101FE4002368FF225A620123637700202077F8BD1B
:101FF4000220FCE700285AD010B50446436A33B9DE
:102004004368B3F5827F05D00023C36102E0002357
:10201400036143610023A36294F85130002B40D044
:10202400022384F851302268136823F040031360BC
:10203400636803F48273A26802F404421343E268FF
:1020440002F400621343226902F00202134362693C
:1020540002F001021343A26902F400721343E2691D
:1020640002F038021343226A02F080021343A26A88
:1020740002F40052216813430B60638B03F00403E2
:10208400626A02F01002216813434B602268D3692C
:1020940023F40063D36100206065012384F8513088
:1020A40010BD84F850302046FEF728FBB8E7012025
:1020B4007047000010B504460268136923F44053C6
:1020C400C1680B431361836802691A4343691A4365
:1020D400C3691A430168CB6823F4164323F00C0345
:1020E4001343CB600268536923F4407381690B4343
:1020F40053610368314A934206D002F580629342E9
:1021040002D0FFF759FC01E0FFF766FCE369B3F581
:10211400004F29D00021031849411B1841F1000147
:10212400C90041EA5371DB00181863684FEA83025F
:102134004FEA937341F10001FEF72AF8204AA2FB0B
:1021440000314909642303FB11031B013233A2FB51
:1021540003235B0903F0F00202EB011203F00F0307
:10216400216813448B6010BD0023021843EB030164
:10217400121841F10001C90041EA5271D20010184D
:1021840041F10001626892185B41FEF701F80C4AC4
:10219400A2FB00314909642303FB1103DB00323342
:1021A400A2FB03235B095A0002F4F87202EB01124A
:1021B40003F00703216813448B60D4E70010014047
:1021C4001F85EB5158B310B5044690F83D300BB35E
:1021D400242384F83D302268D36823F40053D36069
:1021E4002046FFF767FF2268136923F490431361C5
:1021F4002268536923F02A0353612268D36843F4A5
:102204000053D36000202064202384F83D3084F8F8
:102214003E3010BD80F83C30FEF7A8FAD8E7012024
:1022240070470000DFF834D00D480E490E4A0023F1
:1022340002E0D458C4500433C4188C42F9D30B4A76
:102244000B4C002301E013600432A242FBD3FEF7DF
:10225400D3FA00F019F8FEF77BF97047000001206B
:10226400000000200C000020B42500080C00002011
:1022740084010020FEE702440346934200D17047E4
:1022840003F8011BF9E7000070B50D4D0D4C641BFC
:10229400A4100026A64209D10B4D0C4C00F068F99D
:1022A400641BA4100026A64205D170BD55F8043B5A
:1022B40098470136EEE755F8043B98470136F2E7B4
:1022C400AC250008AC250008AC250008B0250008A2
:1022D4002DE9F04786468C460846089E1546744606
:1022E4001946002B40F0C2808542B2FA82F245D9E9
:1022F4004AB1C2F1200300FA02FC2EFA03F395401E
:1023040043EA0C0C94404FEA154EA8B2BCFBFEF80D
:10231400230C0EFB18CC08FB00F943EA0C43994547
:1023240028D9EB1808F1FF3704D2994502D9A8F14E
:1023340002072B44A3EB0903A4B2B3FBFEFC0EFB80
:102344001C330CFB00F044EA0344A04214D92C19BA
:102354000CF1FF3304D2A04202D9ACF102032C44A5
:10236400241A43EA07401EB1D4400023346073604A
:10237400BDE8F0874746DDE76346F1E792BB431BC0
:1023840001214FEA154EAFB2B3FBFEFC200C0EFB4D
:102394001C330CFB07F840EA0343984562D9EB1859
:1023A4000CF1FF3004D2984502D9ACF102002B4461
:1023B400A3EB0803A4B2B3FBFEFC0EFB1C330CFB23
:1023C40007F744EA0344A7424ED92C190CF1FF3312
:1023D40004D2A74202D9ACF102032C44E41B43EA21
:1023E4000040C0E7C2F1200320FA03F19540904079
:1023F4002EFA03F303434FEA154EAFB2B1FBFEFCD2
:102404000EFB1C10190C0CFB07F841EA004188452F
:1024140004FA02F422D969180CF1FF3004D2884579
:1024240002D9ACF102002944A1EB08019BB2B1FB33
:10243400FEFC0EFB1C110CFB07F743EA01439F4211
:102444000ED9EB180CF1FF3104D29F4202D9ACF142
:1024540002012B44DB1B41EA004192E76046E3E7BB
:102464006146F7E76046A3E76346B7E7834206D9C8
:1024740016B9002108467BE7C6E900E0F9E7B3FA9C
:1024840083F78FB9834201D3724508D8BEEB0204A7
:1024940060EB030301209C461EB9002168E738461F
:1024A400FAE7C6E9004CF8E7C7F1200CBB4022FA72
:1024B4000CF41C432EFA0CF120FA0CF3B84001433F
:1024C4004FEA14490EFA07F5B3FBF9F81FFA84FE34
:1024D40009FB18300B0C08FB0EFA43EA00439A453B
:1024E40002FA07F240D9E31808F1FF3004D29A4502
:1024F40002D9A8F102002344A3EB0A0389B2B3FB77
:10250400F9F809FB183308FB0EFE41EA03418E4536
:102514002CD9611808F1FF3304D28E4502D9A8F1F1
:102524000203214443EA0040A0FB0298A1EB0E0100
:102534004145CE46434602D306D14D4504D2B9EBBC
:10254400020E68EB04030138002EA6D0B5EB0E0290
:1025540061EB030101FA0CFC22FA07F34CEA0303D2
:10256400F940C6E9003198E74046C5E74346D9E754
:10257400F8B500BFF8BC08BC9E467047F8B500BF6C
:08258400F8BC08BC9E4670473C
:10258C000000000001020304000000000000000035
:08259C0001020304060708090F
:0825A40030FDFF7F0100000083
:0425AC00ED01000835
:0425B000C901000855
:0C25B4000024F4000100000010000000F2
:0400000508002229A4
:00000001FF
