:020000040800F2
:10000000000001200527000875080008770800088F
:10001000790800087B0800087D080008000000003F
:100020000000000000000000000000007F08000841
:100030008108000800000000830800088508000807
:1000400055270008552700085527000855270008A0
:100050005527000855270008552700085527000890
:100060005527000855270008552700085527000880
:100070005527000855270008552700088D08000857
:1000800055270008552700085527000800000000E4
:1000900000000000000000000000000055270008DC
:1000A0005527000855270008552700085527000840
:1000B0005527000855270008552700085527000830
:1000C0005527000855270008552700085527000820
:1000D0005527000855270008552700080000000094
:1000E000552700089D08000855270008000000005B
:1000F000000000000000000000000000552700087C
:100100000000000055270008552700085527000863
:1001100000000000000000000000000000000000DF
:1001200055270008552700085527000855270008BF
:10013000552700080000000000000000000000003B
:10014000000000000000000000000000552700082B
:10015000552700085527000855270008552700088F
:100160005527000855270008000000000000000087
:10017000000000000000000000000000000000007F
:1001800000000000552700080000000000000000EB
:0401900055270008E7
:1001940053B94AB9002908BF00281CBF4FF0FF31EA
:1001A4004FF0FF3000F00CB8ADF1080C6DE904CE4F
:1001B40002F0FCFADDF804E0DDE9022304B0704744
:1001C400704700BF10B5054C237833B9044B13B105
:1001D4000448AFF300800123237010BD0C000020FD
:1001E40000000000502A000808B5034B1BB1034966
:1001F4000348AFF3008008BD000000001000002099
:10020400502A0008F0B58BB0002405940694079496
:100214000894099401942B4B1A6B42F004021A635C
:100224001A6B02F004020192019A02941A6B42F0D2
:1002340080021A631A6B02F080020292029A0394FB
:100244001A6B42F001021A631A6B02F00102039264
:10025400039A04941A6B42F002021A631B6B03F0B4
:1002640002030493049B184D22461A21284600F0E9
:100274008DFE164E224640F20141304600F086FEC5
:100284001A230593012706970794089405A928467D
:1002940000F098FD40F201430593069707940894F3
:1002A40005A9304600F08EFD4FF4807305930223B8
:1002B400069307940894099405A9284600F082FD42
:1002C4000BB0F0BD003802400000024000040240C0
:1002D40000B583B000210191094B1A6B42F400125E
:1002E4001A631B6B03F400130193019B0A460F204E
:1002F40000F07CFB0F2000F089FB03B05DF804FBE9
:1003040000380240704772B6FEE7000008B50A489C
:100314000A4B03600A4B436000238360C3604FF4BD
:100324008042026143618361C361036200F034FE71
:1003340000B908BDFFF7E7FF8C010020005400401E
:10034400A086010008B50B480B4B03604FF4007303
:100354004360302383600023C3600361074A426122
:100364008361C361036200F0F5FE00B908BDFFF7C5
:10037400CAFF00BF4401002000380040007701009C
:1003840008B50D480D4B03604FF48273436000239E
:100394008360C360036143614FF400728261C3618F
:1003A4000362436283620A23C36202F092F800B9D3
:1003B40008BDFFF7A8FF00BF6C000020003001401B
:1003C40008B50B480B4B03604FF4E1334360002343
:1003D4008360C36003610C2242614FF44072826106
:1003E400C36102F05DF900B908BDFFF78CFF00BFDF
:1003F400280000200010014010B590B000240B9498
:100404000C940D940E940F940A9428222146684665
:1004140002F09FF92B482C4B036044607F238360D8
:10042400FF23C3604FF4001303614FF4801343614F
:100434004FF48023836101F070FE002839D100233A
:100444008DF82C308DF82D308DF82E300E930F93BF
:1004540001220BA91B4801F0B3FE60BB01228DF8F9
:1004640028208DF829208DF82A2000238DF82B30A0
:100474000AA9144801F004FFF8B900238DF80030EC
:100484008DF8013010228DF8022001930393049318
:100494000E4A05920693079301228DF820204FF40B
:1004A400807309936946074801F038FF38B910B0E2
:1004B40010BDFFF728FFFFF726FFFFF724FFFFF724
:1004C40022FF00BFC400002000280040008080807C
:1004D40000B595B03022002108A802F03AF90023B3
:1004E400039304930593069307930193254A116C90
:1004F40041F080511164126C02F080520192019A11
:100504000293214A136823F4404343F400431360E5
:10051400136803F440430293029B0B2308934FF4A4
:100524008033099301230B9310220C920D93022321
:100534000E934FF480020F9219221092A822119266
:1005440012930423139308A801F002F9A8B90F2306
:10055400039302210491002305934FF480520692E1
:10056400079303A801F092FB48B9002211461046F4
:1005740001F0EAFA15B05DF804FBFFF7C4FEFFF7DB
:10058400C2FE00BF003802400070004008B500F011
:10059400BBF9FFF79DFFFFF735FEFFF799FEFFF765
:1005A400B5FEFFF7CFFEFFF7EBFEFFF709FFFFF7FE
:1005B40023FFFEE782B0002100910B4B5A6C42F4FA
:1005C40080425A645A6C02F480420092009A01916B
:1005D4001A6C42F080521A641B6C03F0805301932E
:1005E400019B02B0704700BF0038024030B589B0AB
:1005F4000023039304930593069307930268144B13
:100604009A4201D009B030BD00250195114C236BED
:1006140043F002032363236B03F002030193019B62
:10062400C023039312230493032306930423079301
:1006340003A9094800F0C6FB0295236C43F4001398
:100644002364236C03F400130293029BDAE700BFD4
:1006540000540040003802400004024030B58DB020
:1006640000230793089309930A930B93029303932C
:100674000493059306930268294B9A4201D00DB066
:1006840030BD04460123029364230393042304939B
:1006940002A801F0D1FB00283CD100250095214B94
:1006A4001A6C42F480421A641A6C02F4804200927A
:1006B400009A01951A6B42F002021A631B6B03F055
:1006C40002030193019B4FF43043079302230893E1
:1006D40009950A9505230B9307A9134800F072FBAB
:1006E4001248134B0360456040238360C5604FF498
:1006F400806303614FF4006343614FF400538361EB
:10070400C5610562456200F009FA30B9074BA3637D
:100714009C63B4E7FFF7F7FDBFE7FFF7F4FDF5E7E8
:10072400003800400038024000040240E400002089
:100734007060024000B587B00023019302930393D5
:100744000493059302680F4B9A4202D007B05DF8F8
:1007540004FB022301934FF40073049301A801F0F6
:100764006BFB60B9084B0122C3F83C2E00221146F2
:10077400292000F03BF9292000F048F9E6E7FFF7CB
:10078400C2FDEFE7002800400000474200B589B0F1
:100794000023039304930593069307930268154B70
:1007A4009A4202D009B05DF804FB0021019103F5DF
:1007B40084335A6C42F480525A645A6C02F4805264
:1007C4000192019A02911A6B42F001021A631B6BA7
:1007D40003F001030293029BE02303930223049397
:1007E400032306930523079303A9034800F0EAFAB9
:1007F400D8E700BF003001400000024000B589B0D6
:10080400002303930493059306930793026803F16B
:10081400804303F588339A4202D009B05DF804FBA3
:100824000021019103F594335A6C42F010025A648A
:100834005A6C02F010020192019A02911A6B42F072
:1008440001021A631B6B03F001030293029B4FF432
:10085400F05303930223049303230693072307937C
:1008640003A9024800F0AEFAD7E700BF0000024037
:10087400FEE7FEE7FEE7FEE7FEE7704770477047D6
:1008840008B500F05BF808BD08B5024800F0ACF903
:1008940008BD00BFE400002008B5024801F0BCFB1D
:1008A40008BD00BFC4000020034AD2F8883043F4D6
:1008B4007003C2F88830704700ED00E010B50446BC
:1008C4000E4B1A784FF47A73B3FBF2F30C4A1068A8
:1008D400B0FBF3F000F0A8F868B90F2C01D901209F
:1008E4000AE0002221464FF0FF3000F07FF8054B6C
:1008F4001C60002000E0012010BD00BF04000020A7
:10090400000000200800002008B50B4B1A6842F4D0
:1009140000721A601A6842F480621A601A6842F41B
:1009240080721A60032000F04FF80F20FFF7C6FF13
:10093400FFF740FE002008BD003C0240034A116856
:10094400034B1B780B441360704700BFE001002089
:1009540004000020014B1868704700BFE00100202C
:10096400002808DB0901C9B200F1604000F56140CC
:1009740080F80013704700F00F000901C9B2014B61
:100984001954704714ED00E000B500F00700C0F101
:10099400070CBCF1040F28BF4FF0040C031D062BF9
:1009A4000FD9C31E4FF0FF3E0EFA0CF021EA0001EE
:1009B40099400EFA03FE22EA0E0241EA02005DF8B3
:1009C40004FB0023EEE70000074AD36823F4E06346
:1009D4001B041B0C000200F4E060034343F0BF63FC
:1009E40043F40033D360704700ED00E010B50446D3
:1009F400054BD868C0F30220FFF7C6FF0146204626
:100A0400FFF7AEFF10BD00BF00ED00E0002807DBDC
:100A140000F01F02400901239340024A42F82030AB
:100A2400704700BF00E100E00138B0F1807F0BD2D5
:100A34004FF0E0235861054AF02182F8231000208A
:100A4400986107221A6170470120704700ED00E0A9
:100A540010B40368D9B210390A4AA2FB0142120940
:100A6400094CA25CC2655F2907D96FF309030433FB
:100A74008365806D5DF8044B70476FF309038365EC
:100A8400F7E700BFABAAAAAA802A0008836A826992
:100A940092B9012B0AD0022B02D00BB1002070476F
:100AA400C36A13F0807F28D100207047C36AB3F172
:100AB400C07F24D000207047B2F5005F09D0022B1C
:100AC40025D9032B25D1C36A13F0807F23D10020BD
:100AD4007047032B03D8DFE803F01404140A002042
:100AE4007047C36A13F0807F0DD100207047C36A3A
:100AF400B3F1C07F09D00020704701207047012066
:100B04007047012070470120704701207047012081
:100B140070470020704701207047000070B50446FC
:100B2400FFF718FF002C5BD00546022384F835300C
:100B3400002384F834302268136823F0010313601F
:100B440023681A6812F0010F0AD0FFF703FF431B52
:100B5400052BF5D920236365032084F8350070BD87
:100B64001A68204911406268A0680243E0680243A1
:100B74002069024360690243A0690243E0690243B9
:100B8400206A02430A43616A04291ED01A60266857
:100B9400756925F00705636A1D43042B07D1A36A11
:100BA4001D43E36A1BB12046FFF770FF90B97561DE
:100BB4002046FFF74DFFE26D3F2393408360002002
:100BC4006065012384F83530C9E7E16A206B01438D
:100BD4000A43DBE740236365012084F83500BEE760
:100BE4000120BCE73F8010F0F0B583B00446002339
:100BF4000193724B1D68724BA3FB0535AD0A876DDB
:100C04003E68C26D08239340334210D003681A68CB
:100C140012F0040F0BD01A6822F004021A60C26D9D
:100C240008239340BB60436D43F001034365E26DC9
:100C340001239340334209D02268526912F0800F95
:100C440004D0BB60636D43F002036365E26D04236B
:100C54009340334209D02268126812F0020F04D084
:100C6400BB60636D43F004036365E26D102393403E
:100C7400334224D02268126812F0080F1FD0BB60E0
:100C840023681A6812F4802F0DD01B6813F4002F08
:100C940004D1236C9BB12046984710E0A36C73B138
:100CA400204698470BE01A6812F4807F03D11A6833
:100CB40022F008021A60236C0BB120469847E26DBB
:100CC40020239340334255D02268126812F0100F4B
:100CD40050D0BB6094F83530DBB2052B0ED02368BE
:100CE4001A6812F4802F33D01B6813F4002F2AD112
:100CF400636C002B3ED0204698473BE02268136883
:100D040023F0160313602268536923F080035361B0
:100D1400236CA3B12268136823F008031360E26D07
:100D24003F239340BB60012384F83530002384F8CB
:100D34003430236D002B3FD0204698473CE0A36C11
:100D4400002BE7D1EBE7E36BA3B12046984711E012
:100D54001A6812F4807F09D11A6822F010021A600E
:100D6400012384F83530002384F83430E36B0BB16D
:100D740020469847636DFBB1636D13F0010F17D0E4
:100D8400052384F835302268136823F001031360C7
:100D9400019B01330193AB4204D823681B6813F011
:100DA400010FF5D1012384F83530002384F8343061
:100DB400E36C0BB12046984703B0F0BD000000205F
:100DC400B5814E1B00230F2B00F2D78070B582B083
:100DD40065E085684FEA430E032404FA0EF425EA1D
:100DE4000405CC6804FA0EF42C438460446824EAB5
:100DF40002044A68C2F300129A40224342605CE053
:100E0400DC08083450F8242003F00705AD004FF047
:100E14000F0E0EFA05FE22EA0E0E0A69AA4042EAF5
:100E24000E0240F824205CE0042200E0002202FAD2
:100E34000EF22A430234514D45F82420504A946856
:100E44006FEA0C0224EA0C054E6816F4801F01D0E8
:100E54004CEA04054A4CA560E46802EA04054E68BD
:100E640016F4001F01D04CEA0405454CE5606468A3
:100E740002EA04054E6816F4003F01D04CEA04056A
:100E84003F4C6560246822404D6815F4803F01D0D2
:100E94004CEA04023A4C226001330F2B6BD8012236
:100EA4009A400C6804EA020C32EA0404F4D14C6857
:100EB40004F00304013C012C8BD94A6802F00302BC
:100EC400032A09D0C4685D000322AA4024EA02046C
:100ED4008A68AA402243C2604A6802F00302022AD6
:100EE4008ED004684FEA430E032202FA0EF224EA7B
:100EF40002044A6802F0030202FA0EF2224302607C
:100F04004A6812F4403FC7D0002201921D4A546C33
:100F140044F480445464526C02F480420192019A75
:100F24009C08A51C154A52F8255003F0030E4FEAFD
:100F34008E0E0F2202FA0EF225EA0205124A9042A0
:100F44003FF474AF02F5806290420ED002F58062E5
:100F540090420CD002F5806290420AD002F5806281
:100F640090423FF461AF072261E701225FE702226A
:100F74005DE703225BE702B070BD704700380140B3
:100F8400003C014000380240000002400AB1816187
:100F94007047090481617047002800F0CC8070B567
:100FA400044690F83D30002B77D0242384F83D305C
:100FB4002268136823F0010313602268136843F462
:100FC400004313602268136823F40043136000F0A5
:100FD40013FF62685A4B9A4264D85A4B98428CBFAA
:100FE40000230123002B40F0A8805749A1FB0031C6
:100FF4008B0C25686A6822F03F0242EA91426A60DB
:1010040021680A6A22F03F0266684D4DAE424FD80D
:10101400013313430B622168CA6922F44F4222F060
:10102400FF026568464B9D424CD8431E6D00B3FBDE
:10103400F5F3013340F6FC70034278D0C3F30B039D
:101044001A43CA6121680B6823F0C003E269206A6D
:10105400024313430B6021688B6823F4034323F09A
:10106400FF032269E068024313438B602168CB6865
:1010740023F0FF036269A06902431343CB60226833
:10108400136843F00103136000202064202384F8D4
:101094003D30206384F83E0070BD80F83C30FFF79B
:1010A400A5FA82E7294B98428CBF0023012399E7D4
:1010B4004FF4967505FB03F3254DA5FB03539B09DC
:1010C4000133A6E7A668BEB9431E05EB450CB3FB86
:1010D400FCF30133C3F30B03B3FA83F35B0943BBA0
:1010E400C6B9431E05EB4505B3FBF5F30133C3F362
:1010F4000B0343F40043A3E7431E05EB850C0CEB01
:101104008C0CB3FBFCF30133C3F30B03B3FA83F38B
:101114005B09E4E7431E05EB850505EB8505B3FB99
:10112400F5F30133C3F30B0343F4404388E704238B
:1011340086E7012384E7012070470120ACE700BF64
:10114400A08601007F841E0083DE1B43FF083D0050
:10115400D34D6210002800F0BF8038B5044690F8E3
:101164004130002B51D0022284F841202168CB6900
:1011740023F47B6323F00F03CB6123681A62636952
:10118400934263D0E368002B46D11025A368202B3B
:1011940000D86D00012000F005FF2369B3F5007F3E
:1011A4003CD0B0FBF5F000EB800043006269B3FB78
:1011B400F2F30533494AA2FB0323C3F3C002C2EB93
:1011C400D3035B0811029A1EFD2A41D822690A43FF
:1011D40021681A430A622168CB6923F47B6323F0F4
:1011E4000F036268A0680243E0680243A0690243F7
:1011F400134343F40063CB61236A012B2ED00020F8
:101204006064012384F8413038BD80F84030344BA9
:101214004363FFF723FAA6E72025B7E7E36853B152
:10122400AD00B0FBF5F000EB800043006269B3FB56
:10123400F2F30533BEE7ED00B0FBF5F000EB800000
:1012440043006269B3FBF2F30533B3E70021BAE765
:10125400636C43F0100363640120D5E7214B63639F
:101264002268214B9A421FD04FF04022D36923F4C5
:101274007B6323F00F03D36122681B4B9A4215D082
:101284004FF0402302221A622268174B9A4210D070
:101294004FF04025EB699BB26268B2F5007F0AD03B
:1012A400C2B94FF4807008E0104ADFE7A3F5806309
:1012B400E8E70E4DEEE74FF48070B4F808C0A1895A
:1012C400228B40EA0C0001430A43134343F40063B6
:1012D400EB6194E70020F0E701207047CDCCCCCC43
:1012E4006B1300087D1500080038004000340040EE
:1012F400704708B5426A03681288DA60436A0233A9
:101304004362438D9BB2013B9BB24385438D9BB2A9
:1013140003B108BD0268536823F0A003536001239E
:1013240080F84130FFF7E4FFF3E7704708B503683E
:10133400DA68C36A1A80C36A0233C362438E9BB2FB
:10134400013B9BB24386438E9BB203B108BD026846
:10135400536823F060035360012380F84130FFF7A2
:10136400E4FFF3E7704710B584B00446026893685D
:10137400039390F84130DBB2042B06D094F841304B
:10138400DBB2032B2CD004B010BD039B13F0010F70
:1013940003D0536813F0400F1FD1039B13F0400F89
:1013A400ECD023685A6812F0200FE7D05A6822F074
:1013B40060025A60002301932368DA6801929B68F3
:1013C4000193019B012384F84130636C43F00203D1
:1013D40063642046FFF7C6FFD0E7FFF7A7FFDCE70B
:1013E400039B13F0020F04D023685B6813F0800F93
:1013F4001DD1039B13F0080FC5D023685A6812F05F
:10140400200FC0D05A6822F0A0025A600023029331
:1014140023689B680293029B012384F84130636C28
:1014240043F0040363642046FFF79CFFABE72046C8
:10143400FFF75FFFDDE7704708B5436A9A1C426215
:1014440002681B88D360438D9BB2013B9BB24385EA
:10145400438D9BB23BB90268536823F0A0035360E9
:10146400438E9BB203B108BD012380F84130FFF7DE
:10147400E2FFF8E708B50268154B9A421CD04FF01A
:101484004023DA68C36A991CC1621A80438E9BB2F6
:10149400013B9BB24386438E9BB263B902680C4BFB
:1014A4009A420CD04FF04022536823F060035360FB
:1014B400438D9BB22BB108BDA3F58063E1E7054AD8
:1014C400F2E7012380F84130FFF7B5FFF3E700BFEF
:1014D400003800400034004008B5436A9A1C426258
:1014E4001A880168134B994218D04FF04023DA60F0
:1014F400438D9BB2013B9BB24385438D9BB263B941
:1015040002680C4B9A420CD04FF04022536823F0EF
:10151400A0035360438E9BB22BB108BDA3F5806337
:10152400E5E7054AF2E7012380F84130FFF783FF3E
:10153400F3E700BF003800400034004008B50368FA
:10154400DA68C36A991CC1621A80438E9BB2013B5C
:101554009BB24386438E9BB23BB90268536823F027
:1015640060035360438D9BB203B108BD012380F82F
:101574004130FFF760FFF8E710B586B00446036812
:101584009A680592704A93426FD04FF04022916856
:1015940004915B680393536802936368B3F5007F17
:1015A40001D0002B70D1059B13F0020F03D0039BD5
:1015B40013F0800F5CD1049B13F0010F03D0029B46
:1015C40013F0400F58D1049B13F0400F24D0029B1A
:1015D40013F0200F20D022685B4B9A4250D04FF07A
:1015E4004022536823F0600353602268536823F059
:1015F400A0035360002300932368DA6800929B6879
:101604000093009B012384F84130636C43F0020390
:1016140063642046FFF7A6FE059B13F0080F22D053
:10162400039B13F0200F1ED02268536823F0A003FD
:1016340053602268444B9A4224D04FF040225368AE
:1016440023F0600353600023019323689B68019394
:10165400019B012384F84130636C43F00403636409
:101664002046FFF77FFE06B010BDA2F580628EE72C
:101674002046FFF7E1FE9EE72046FFF7FBFEA2E7C8
:10168400324AAEE7314ADAE7049B13F0020F03D083
:10169400029B13F0800F4AD1059B13F0010F03D076
:1016A400039B13F0400F46D1059B13F0400F1CD051
:1016B400039B13F0200F18D02268536823F06003B3
:1016C40053602268204B9A4239D04FF0402253682D
:1016D40023F0A0035360012384F84130636C43F08A
:1016E400020363642046FFF73DFE049B13F0080FDA
:1016F400B9D0029B13F0200FB5D02268124B9A4246
:101704001FD04FF04022536823F0A0035360226897
:10171400536823F060035360012384F84130636C01
:1017240043F0040363642046FFF71CFE9BE7204656
:10173400FFF7D2FEB0E72046FFF700FFB4E7034A05
:10174400C5E7024ADFE700BF00380040003400402C
:10175400002800F0E08170B582B00446036813F0FD
:10176400010F3BD09F4B9B6803F00C03042B2CD040
:101774009C4B9B6803F00C03082B21D06368B3F5E2
:10178400803F4FD0B3F5A02F52D0964B1A6822F465
:1017940080321A601A6822F480221A606368002B6F
:1017A40050D0FFF7D7F805468E4B1B6813F4003F63
:1017B40014D1FFF7CFF8401B6428F5D90320B1E119
:1017C400884B5B6813F4800FD8D0864B1B6813F4E6
:1017D400003F03D06368002B00F09F81236813F05F
:1017E400020F54D07F4B9B6813F00C0F3ED07D4BFF
:1017F4009B6803F00C03082B33D0E368002B68D0FC
:10180400794B01221A60FFF7A5F80546754B1B6852
:1018140013F0020F54D1FFF79DF8401B0228F5D9AD
:1018240003207FE16F4A136843F480331360B5E704
:101834006C4B1A6842F480221A601A6842F48032AF
:101844001A60ABE7FFF786F80546664B1B6813F48E
:10185400003FC3D0FFF77EF8401B6428F5D903206E
:1018640060E1604B5B6813F4800FC6D15D4B1B686D
:1018740013F0020F03D0E368012B40F05081594A62
:10188400136823F0F803216943EAC1031360236852
:1018940013F0080F42D063696BB3534B0122C3F8B2
:1018A400802EFFF757F805464E4B5B6F13F0020F7F
:1018B40034D1FFF74FF8401B0228F5D9032031E15A
:1018C400484A136823F0F803216943EAC10313600B
:1018D400DDE7454B00221A60FFF73CF80546414B13
:1018E4001B6813F0020FD2D0FFF734F8401B022814
:1018F400F5D9032016E13C4B0022C3F8802EFFF7F4
:1019040029F80546374B5B6F13F0020F06D0FFF73B
:1019140021F8401B0228F5D9032003E1236813F0C2
:10192400040F77D02F4B1B6C13F0805F33D100234F
:1019340001932C4B1A6C42F080521A641B6C03F016
:1019440080530193019B0125284B1B6813F4807F6E
:1019540023D0A368012B34D0052B38D0214B1A6F28
:1019640022F001021A671A6F22F004021A67A368B0
:10197400002B3DD0FEF7EEFF06461A4B1B6F13F00B
:10198400020F46D1FEF7E6FF801B41F288339842EE
:10199400F3D90320C6E00025D6E7144A136843F4BC
:1019A40080731360FEF7D6FF0646104B1B6813F4D2
:1019B400807FCED1FEF7CEFF801B0228F5D903200D
:1019C400B0E0084A136F43F001031367CFE7054BF8
:1019D4001A6F42F004021A671A6F42F001021A6782
:1019E400C5E700BF003802400000474200700040D5
:1019F400FEF7B0FF0646524B1B6F13F0020F08D0E0
:101A0400FEF7A8FF801B41F288339842F3D90320E4
:101A140088E0EDB9A369002B00F08380484A9268FE
:101A240002F00C02082A51D0022B17D0454B002299
:101A34001A66FEF78FFF0446414B1B6813F0007FC4
:101A440042D0FEF787FF001B0228F5D9032069E086
:101A54003B4A136C23F080531364DBE7394B0022B9
:101A64001A66FEF777FF0546354B1B6813F0007FB7
:101A740006D0FEF76FFF401B0228F5D9032051E082
:101A8400E369226A1343626A43EA8213A26A520830
:101A9400013A43EA0243E26A43EA0263284A536092
:101AA400284B01221A66FEF755FF0446244B1B6897
:101AB40013F0007F06D1FEF74DFF001B0228F5D975
:101AC40003202FE000202DE000202BE0012B2BD061
:101AD4001B4B5B6803F48001E269914226D103F059
:101AE4003F02216A8A4223D1616A47F6C0721A40D2
:101AF400B2EB811F1ED103F44031A26A5208013AAD
:101B0400B1EB024F18D103F07063E26AB3EB026FDA
:101B140014D1002006E001207047012002E00120DA
:101B240000E0002002B070BD0120FBE70120F9E7CE
:101B34000120F7E70120F5E70120F3E70120F1E7B1
:101B4400003802400000474270B588B00C46154684
:101B540000BB00230193204E326B42F0010232633A
:101B6400326B02F001020192019A4FF480720392E7
:101B740002220492032206920593079303A91748AD
:101B8400FFF720F9B36823F0EC6325431D43B560E8
:101B940008B070BD002302930F4E326B42F0040272
:101BA4003263326B02F004020292029A4FF4007222
:101BB400039202220492032206920593079303A937
:101BC4000748FFF7FFF8B36823F0784344EAC504F5
:101BD4001C43B460DCE700BF003802400000024050
:101BE4000008024008B5264B9B6803F00C03042B45
:101BF40041D0082B41D1224B5A6802F03F025B6866
:101C040013F4800F12D01E4B5968C1F388111D487C
:101C14000023A1FB0001FEF7BBFA194B5B68C3F379
:101C2400014301335B00B0FBF3F008BD144B58686B
:101C3400C0F388104FEA401CBCEB000C6EEB0E0E98
:101C44004FEA8E1343EA9C634FEA8C11B1EB0C010B
:101C540063EB0E03DB0043EA5173C90011EB000C84
:101C640043F10003990200234FEA8C2041EA9C517E
:101C7400FEF78EFAD1E70348D7E70348D5E700BF5C
:101C84000038024040787D010024F400002800F070
:101C94009B8070B50D4604464F4B1B6803F0070349
:101CA4008B4208D2CBB24C4A1370136803F007037B
:101CB4008B4240F08B80236813F0020F17D013F08F
:101CC400040F04D0454A936843F4E05393602368B7
:101CD40013F0080F04D0414A936843F460439360BF
:101CE4003E4A936823F0F003A1680B439360236892
:101CF40013F0010F32D06368012B21D09A1E012A00
:101D040025D9364A126812F0020F61D033498A6825
:101D140022F0030213438B60FEF71CFE06462F4B92
:101D24009B6803F00C036268B3EB820F16D0FEF7D6
:101D340011FE801B41F288339842F0D9032042E01F
:101D4400264A126812F4003FE0D101203BE0234A06
:101D5400126812F0007FD9D1012034E01E4B1B68B9
:101D640003F00703AB4207D9EAB21B4B1A701B6896
:101D740003F00703AB422DD1236813F0040F06D000
:101D8400164A936823F4E053E1680B439360236895
:101D940013F0080F07D0114A936823F460432169B4
:101DA40043EAC1039360FFF71DFF0C4B9B68C3F329
:101DB40003130B4AD35CD8400A4B18600A4B1868CB
:101DC400FEF77CFD002070BD012070470120FAE77A
:101DD4000120F8E70120F6E7003C02400038024009
:101DE400702A00080000002008000020014B186839
:101DF400704700BF0000002008B5FFF7F7FF044B51
:101E04009B68C3F38223034AD35CD84008BD00BF58
:101E140000380240682A000808B5FFF7E7FF044BC2
:101E24009B68C3F34233034AD35CD84008BD00BF68
:101E340000380240682A000830B583B004460368BD
:101E440013F0050F0ED1236813F0020F36D1236867
:101E540013F0080F00F09B80227C4E4BC3F8E02166
:101E6400002095E04C4B00229A66FEF773FD054670
:101E74004A4B1B6813F0006F06D0FEF76BFD431B43
:101E8400022BF5D9032083E06268A3681B0743EAA9
:101E94008213424AC2F884303F4B01229A66FEF70D
:101EA40059FD05463D4B1B6813F0006FCBD1FEF77F
:101EB40051FD401B0228F5D9032069E0002301935A
:101EC400364B1A6C42F080521A641B6C03F0805338
:101ED4000193019B324A136843F480731360FEF745
:101EE40039FD05462E4B1B6813F4807F06D1FEF79F
:101EF40031FD431B022BF5D9032049E0274B1B6F0F
:101F040013F4407314D0E26802F440729A420FD082
:101F1400224B1A6F22F440721F490120C1F8400E6F
:101F24000020C1F8400E1A671B6F13F0010F12D185
:101F3400E36803F44072B2F5407F1DD0174A9368FA
:101F440023F4F813936015490B6FE268C2F30B0294
:101F540013430B677BE7FEF7FDFC05460F4B1B6F36
:101F640013F0020FE4D1FEF7F5FC401B41F2883375
:101F74009842F3D903200BE008498A6822F4F81246
:101F840023F0704323F4407313438B60DBE700209A
:101F940003B030BD00104742000047420038024001
:101FA40000700040012801D000207047164B9B6848
:101FB40013F4000303D0012B23D114487047124BB0
:101FC4005B6813F4800F14D00F4B5A6802F03F0281
:101FD4000F4BB3FBF2F30C4AD2F88400C0F3881021
:101FE40003FB00F0D2F88430C3F30273B0FBF3F0C8
:101FF4007047054B5A6802F03F02064BB3FBF2F3FD
:10200400E9E70020704700BF003802400080BB00B1
:1020140040787D010024F40010B5044603689A68F2
:1020240012F4805F03D0DB6813F4807F0FD1236840
:102034009A6812F4005F03D0DB6813F4007F0FD1B9
:102044000C4B4FF400325A610123637710BDFEF745
:1020540059F92268D368DBB263F4C073D360E6E74E
:10206400204600F035FA2268D368DBB263F42073AB
:10207400D360E5E7003C014038B504460268D36804
:1020840023F0A003D360FEF765FC05462368DB68F4
:1020940013F0200F07D1FEF75DFC401BB0F57A7FEB
:1020A400F4D9032000E0002038BD70B50368DA6875
:1020B40012F0400F02D00025284670BD0446DA68AD
:1020C40042F08002DA60FEF745FC064600252368EC
:1020D400DB6813F0400FEFD1002DEDD1FEF73AFC91
:1020E400831BB3F57A7FF2D9042363770125EEE7E6
:1020F4000268D36823F08003D36003689B6813F0FD
:10210400200F01D00020704710B50446FFF7B4FF3C
:1021140010B104236377012010BD002842D010B50C
:102124000446437F7BB1022363772368CA225A6241
:10213400236853225A622046FFF7B7FF38B1236859
:10214400FF225A6210BD0377FEF7F4FAEBE7226828
:10215400936823F4E00323F04003936021688A68C2
:102164006368206903436069034313438B602368F6
:10217400E2681A6122681369A16843EA01431361A2
:102184002046FFF7B5FF0028D9D12268136C23F449
:10219400802313642268136CA1690B431364012325
:1021A4006377CCE701207047002303E00133DBB2FF
:1021B4000A38C0B20928F9D81B01DBB218437047AA
:1021C400037F012B5AD070B504460E4601230377D2
:1021D4000223437732BB03689B6813F0400F01D19D
:1021E4000023CB703078FFF7DFFF05047078FFF72A
:1021F400DBFF45EA0025B078FFF7D6FF0543F37807
:1022040045EA83552368CA225A62236853225A62D4
:102214002046FFF74AFFB8B12368FF225A62002321
:10222400237770BD03689B6813F0400F01D100232E
:10223400CB70337875782D0245EA0345B3781D4396
:10224400F37845EA8355DDE7236805F07F3525F00B
:10225400FE451D602268936823F4802393602168FF
:102264008B68F2683069024313438B602046FFF7A2
:102274003FFF0028D0D101236377CDE702207047C8
:10228400037F012B48D070B504460E460123037723
:1022940002234377CAB1CB784D782D0245EA034532
:1022A4008B781D430B7845EA43352368CA225A626A
:1022B400236853225A622046FFF7F7FEF0B12368E1
:1022C400FF225A620023237770BD4B7813F0100F5E
:1022D40003D003F0EF030A334B70F078FFF764FF89
:1022E40005047078FFF760FF45EA0025B078FFF732
:1022F4005BFF0543337845EA4335D6E7236825F089
:102304007F4525F0C0055D602046FFF7F1FE0028FB
:10231400D5D101236377D2E70220704770B582B02C
:102324000D46684B1B686849A1FB0313DB0A4FF495
:102334007A7101FB03F30193037F012B00F0C0804A
:1023440004460123037702234377002A6CD10368F0
:102354009B6813F0400F01D10023EB702878FFF73E
:1023640023FF06046878FFF71FFF46EA0026A878D3
:10237400FFF71AFF0643EB7846EA835695F82000E8
:10238400FFF712FF46EA0062EB691A436B691A43CE
:102394006868AB6918432368CA21596223685321CA
:1023A40059626B6AB3F5807F58D021688B6823F437
:1023B40000738B602168CB68DBB263F42073CB605D
:1023C400404B1B684049A1FB0313DB0A4FF47A71AD
:1023D40001FB03F30193019B591E0191002B67D06C
:1023E4002368D96811F0020FF5D01A622368986443
:1023F4002268936843F4007393602268936843F4FB
:1024040000539360314B1A6842F400321A609A68A0
:1024140042F400329A602368FF225A6201236377F0
:102424000020207702B070BD03689B6813F0400F52
:1024340001D10023EB702B786A78120242EA03423E
:10244400AB781A43EB7842EA835295F8203042EA9B
:102454000362EB691A436B691A4399E721688B6835
:1024640023F480738B602168CB68DBB263F4C073A0
:10247400CB60019B591E019193B12368D96811F077
:10248400010FF6D0DA61236858642268936843F434
:10249400807393602268936843F480539360B1E738
:1024A4002368FF225A620320607700232377B9E769
:1024B4002368FF225A620320607700232377B1E761
:1024C4000220AFE700000020D34D6210003C014021
:1024D400704700285AD010B50446436A33B943689C
:1024E400B3F5827F05D00023C36102E000230361BA
:1024F40043610023A36294F85130002B40D002239F
:1025040084F851302268136823F040031360636831
:1025140003F48273A26802F404421343E26802F4EF
:1025240000621343226902F002021343626902F05B
:1025340001021343A26902F400721343E26902F038
:1025440038021343226A02F080021343A26A02F49F
:102554000052216813430B60638B03F00403626A27
:1025640002F01002216813434B602268D36923F4FC
:102574000063D36100206065012384F8513010BDED
:1025840084F850302046FEF701F9B8E7012070477F
:1025940010B504460268136923F44053C1680B4321
:1025A4001361836802691A4343691A43C3691A436E
:1025B4000168CB6823F4164323F00C031343CB6068
:1025C4000268536923F4407381690B4353610368C0
:1025D400314A934206D002F58062934202D0FFF75B
:1025E4000BFC01E0FFF718FCE369B3F5004F29D0B9
:1025F4000021031849411B1841F10001C90041EAB7
:102604005371DB00181863684FEA83024FEA93732F
:1026140041F10001FDF7BCFD204AA2FB003149094C
:10262400642303FB11031B013233A2FB03235B0965
:1026340003F0F00202EB011203F00F0321681344CC
:102644008B6010BD0023021843EB0301121841F103
:102654000001C90041EA5271D200101841F1000191
:10266400626892185B41FDF793FD0C4AA2FB0031AE
:102674004909642303FB1103DB003233A2FB032368
:102684005B095A0002F4F87202EB011203F007032B
:10269400216813448B60D4E7001001401F85EB517F
:1026A40058B310B5044690F83D300BB3242384F896
:1026B4003D302268D36823F40053D3602046FFF7EB
:1026C40067FF2268136923F49043136122685369F6
:1026D40023F02A0353612268D36843F40053D36080
:1026E40000202064202384F83D3084F83E3010BD5F
:1026F40080F83C30FEF782F8D8E7012070470000EC
:10270400DFF834D00D480E490E4A002302E0D458B5
:10271400C4500433C4188C42F9D30B4A0B4C002325
:1027240001E013600432A242FBD3FEF7BDF800F0CF
:1027340019F8FDF72BFF704700000120000000206E
:102744000C000020982A00080C000020E40100205E
:10275400FEE702440346934200D1704703F8011B8D
:10276400F9E7000070B50D4D0D4C641BA410002654
:10277400A64209D10B4D0C4C00F068F9641BA4105F
:102784000026A64205D170BD55F8043B9847013692
:10279400EEE755F8043B98470136F2E7902A000823
:1027A400902A0008902A0008942A00082DE9F0478E
:1027B40086468C460846089E154674461946002BE4
:1027C40040F0C2808542B2FA82F245D94AB1C2F1E0
:1027D400200300FA02FC2EFA03F3954043EA0C0CA2
:1027E40094404FEA154EA8B2BCFBFEF8230C0EFB36
:1027F40018CC08FB00F943EA0C43994528D9EB1897
:1028040008F1FF3704D2994502D9A8F102072B44F5
:10281400A3EB0903A4B2B3FBFEFC0EFB1C330CFBBD
:1028240000F044EA0344A04214D92C190CF1FF33FC
:1028340004D2A04202D9ACF102032C44241A43EA84
:1028440007401EB1D440002334607360BDE8F087B4
:102854004746DDE76346F1E792BB431B01214FEA9C
:10286400154EAFB2B3FBFEFC200C0EFB1C330CFB6D
:1028740007F840EA0343984562D9EB180CF1FF309E
:1028840004D2984502D9ACF102002B44A3EB08030F
:10289400A4B2B3FBFEFC0EFB1C330CFB07F744EAAB
:1028A4000344A7424ED92C190CF1FF3304D2A7429A
:1028B40002D9ACF102032C44E41B43EA0040C0E714
:1028C400C2F1200320FA03F1954090402EFA03F35D
:1028D40003434FEA154EAFB2B1FBFEFC0EFB1C10D6
:1028E400190C0CFB07F841EA0041884504FA02F48C
:1028F40022D969180CF1FF3004D2884502D9ACF111
:1029040002002944A1EB08019BB2B1FBFEFC0EFBC3
:102914001C110CFB07F743EA01439F420ED9EB1845
:102924000CF1FF3104D29F4202D9ACF102012B44D5
:10293400DB1B41EA004192E76046E3E76146F7E7C3
:102944006046A3E76346B7E7834206D916B9002178
:1029540008467BE7C6E900E0F9E7B3FA83F78FB9E5
:10296400834201D3724508D8BEEB020460EB030333
:1029740001209C461EB9002168E73846FAE7C6E9FB
:10298400004CF8E7C7F1200CBB4022FA0CF41C43BE
:102994002EFA0CF120FA0CF3B84001434FEA144923
:1029A4000EFA07F5B3FBF9F81FFA84FE09FB183099
:1029B4000B0C08FB0EFA43EA00439A4502FA07F2AD
:1029C40040D9E31808F1FF3004D29A4502D9A8F19E
:1029D40002002344A3EB0A0389B2B3FBF9F809FB11
:1029E400183308FB0EFE41EA03418E452CD96118C9
:1029F40008F1FF3304D28E4502D9A8F10203214421
:102A040043EA0040A0FB0298A1EB0E014145CE46EB
:102A1400434602D306D14D4504D2B9EB020E68EB0E
:102A240004030138002EA6D0B5EB0E0261EB0301BE
:102A340001FA0CFC22FA07F34CEA0303F940C6E955
:102A4400003198E74046C5E74346D9E7F8B500BFEB
:102A5400F8BC08BC9E467047F8B500BFF8BC08BC7B
:042A64009E467047D3
:102A68000000000001020304000000000000000054
:102A780001020304060708090006101600061016CE
:082A880028FDFF7F01000000A2
:042A9000ED0100084C
:042A9400C90100086C
:0C2A98000024F400010000001000000009
:0400000508002705C3
:00000001FF
