:020000040800F2
:100000000000012039390008D9180008DB18000861
:10001000DD180008DF180008E118000800000000E3
:10002000000000000000000000000000E3180008CD
:10003000E518000800000000E7180008E9180008AB
:100040008939000889390008893900088939000888
:100050008939000889390008893900088939000878
:100060008939000889390008893900088939000868
:10007000893900088939000889390008F118000811
:100080008939000889390008893900080000000012
:100090000000000000000000000000008939000896
:1000A0008939000889390008893900088939000828
:1000B0008939000889390008893900088939000818
:1000C0008939000889390008893900088939000808
:1000D00089390008893900088939000800000000C2
:1000E000893900080119000889390008000000005A
:1000F0000000000000000000000000008939000836
:100100000000000089390008893900088939000891
:1001100000000000000000000000000000000000DF
:1001200089390008893900088939000889390008A7
:1001300089390008000000000000000000000000F5
:1001400000000000000000000000000089390008E5
:100150008939000889390008893900088939000877
:1001600089390008893900080000000000000000FB
:10017000000000000000000000000000000000007F
:1001800000000000893900080000000000000000A5
:0401900089390008A1
:1001A00002780B78012A28BF9A4240F0D8806DE986
:1001B000044540EA0104CDE902676FF0000C4FEA04
:1001C00044721AB380EA010414F0070F6BD100F0F7
:1001D000070420F0070004F0030521F007014FEAAF
:1001E000C505F0E8042314F0040FF1E804670CFAE5
:1001F00005F462EA040266EA04060BD063EA04032B
:10020000624667EA0407664604E000BFF0E804239C
:10021000F1E8046782FA4CF582EA0604A4FA8CF449
:100220006CBB83FA4CF583EA0705A5FA8CF595B902
:1002300050E9022351E9026782FA4CF582EA06048A
:10024000A4FA8CF483FA4CF583EA0705A5FA8CF539
:100250002543DBD09CB92DBAB5FA85F424F0070408
:1002600027FA04F1DDE9026723FA04F303F0FF0043
:1002700001F0FF01FDE80445A0EB0100704724BA3E
:10028000B4FA84F424F0070426FA04F1DDE90267E5
:1002900022FA04F202F0FF0001F0FF01FDE804453C
:1002A000A0EB0100704714F0030F3CD110F00304E1
:1002B00028D150F8082B51F8083B82FA4CF582EA15
:1002C0000305A5FA8CF55DB950F8042C51F8043CEF
:1002D00082FA4CF582EA0305A5FA8CF5002DE8D0E8
:1002E0002DBAB5FA85F424F0070423FA04F122FAB2
:1002F00004F202F0FF0001F0FF01FDE80445A0EB6D
:10030000010070474FEAC40420F0030050F8082BA6
:1003100021F0030151F8083B0CFA04F462EA0402EC
:1003200063EA0403C9E710F003041DD0A1EB040144
:1003300020F00300E40750F8042B06D012D28B788B
:100340005FFAA2F4E41A06D12BB1CB785FFAB2F4CB
:10035000E41A00D133B920465DF8104B7047A2EB88
:100360000300704701F1040150F8042BCC0721F081
:10037000030151F8043B48D824D222F07F4482FA8A
:100380004CF594EA1325A5FA8CF50AD165B951F814
:10039000043B84EA0204B4EB036F0ED150F8042B43
:1003A000EBE74FEA132355E035F07F454DD1087850
:1003B000FDE80445C0F1000070474FEA126203F007
:1003C000FF0347E002EA1C4482FA4CF594EA134525
:1003D000A5FA8CF50AD165B951F8043B84EA020408
:1003E000B4EB034F0CD150F8042BEBE74FEA134367
:1003F00030E015EA1C4528D10B884FEA124229E06B
:100400004FEA124203EA1C4324E002F0FF0482FA9E
:100410004CF594EA1365A5FA8CF50AD165B951F843
:10042000043B84EA0204B4EB032F09D150F8042BF7
:10043000EBE74FEA13630DE015F0FF0F05D10B68F2
:100440004FEA122223F07F4304E04FF00000FDE862
:100450000445704712BA1BBA82FA4CF482EA0304CC
:10046000A4FA8CF5B5FA85F402FA04F203FA04F35F
:100470004FEA1260FDE80445A0EB1360704700BF2F
:1004800081F0004102E000BF83F0004330B54FEA45
:1004900041044FEA430594EA050F08BF90EA020FB2
:1004A0001FBF54EA000C55EA020C7FEA645C7FEA45
:1004B000655C00F0E2804FEA5454D4EB5555B8BF68
:1004C0006D420CDD2C4480EA020281EA030382EAD9
:1004D000000083EA010180EA020281EA0303362D6B
:1004E00088BF30BD11F0004F4FEA01314FF4801C3E
:1004F0004CEA113102D0404261EB410113F0004F50
:100500004FEA03334CEA133302D0524263EB430306
:1005100094EA050F00F0A780A4F10104D5F1200EA4
:100520000DDB02FA0EFC22FA05F2801841F10001FF
:1005300003FA0EF2801843FA05F359410EE0A5F1D3
:1005400020050EF1200E012A03FA0EFC28BF4CF004
:10055000020C43FA05F3C01851EBE37101F00045BA
:1005600007D54FF0000EDCF1000C7EEB00006EEBC7
:100570000101B1F5801F1BD3B1F5001F0CD3490851
:100580005FEA30004FEA3C0C04F101044FEA4452A8
:1005900012F5800F80F09A80BCF1004F08BF5FEA2F
:1005A000500C50F1000041EB045141EA050130BD0F
:1005B0005FEA4C0C404141EB0101013C28BFB1F521
:1005C000801FE9D291F0000F04BF01460020B1FA6C
:1005D00081F308BF2033A3F10B03B3F120020CDA3F
:1005E0000C3208DD02F1140CC2F10C0201FA0CF01D
:1005F00021FA02F10CE002F11402D8BFC2F1200C82
:1006000001FA02F120FA0CFCDCBF41EA0C01904037
:10061000E41AA2BF01EB0451294330BD6FEA040480
:100620001F3C1CDA0C340EDC04F11404C4F120026B
:1006300020FA04F001FA02F340EA030021FA04F37D
:1006400045EA030130BDC4F10C04C4F1200220FAD4
:1006500002F001FA04F340EA0300294630BD21FA12
:1006600004F0294630BD94F0000F83F4801306BFD8
:1006700081F480110134013D4EE77FEA645C18BFCC
:100680007FEA655C29D094EA050F08BF90EA020F63
:1006900005D054EA000C04BF1946104630BD91EA5B
:1006A000030F1EBF0021002030BD5FEA545C05D15E
:1006B0004000494128BF41F0004130BD14F580049D
:1006C0003CBF01F5801130BD01F0004545F0FE4111
:1006D00041F470014FF0000030BD7FEA645C1ABF46
:1006E000194610467FEA655C1CBF0B46024650EA7D
:1006F000013406BF52EA033591EA030F41F40021A9
:1007000030BD00BF90F0000F04BF0021704730B52E
:100710004FF4806404F132044FF000054FF0000103
:1007200050E700BF90F0000F04BF0021704730B5C4
:100730004FF4806404F1320410F0004548BF404299
:100740004FF000013EE700BF42004FEAE2014FEAEE
:1007500031014FEA02701FBF12F07F4393F07F4FC9
:1007600081F06051704732F07F4208BF704793F0CC
:100770007F4F04BF41F40021704730B54FF46074DF
:1007800001F0004521F000411CE700BF50EA0102E2
:1007900008BF704730B54FF000050AE050EA01028B
:1007A00008BF704730B511F0004502D5404261EBFB
:1007B00041014FF4806404F132045FEA915C3FF43C
:1007C000D8AE4FF003025FEADC0C18BF03325FEAD9
:1007D000DC0C18BF033202EBDC02C2F1200300FA8A
:1007E00003FC20FA02F001FA03FE40EA0E0021FAAF
:1007F00002F11444BDE600BF70B54FF0FF0C4CF49D
:10080000E06C1CEA11541DBF1CEA135594EA0C0F4E
:1008100095EA0C0F00F0DEF82C4481EA030621EA89
:100820004C5123EA4C5350EA013518BF52EA0335C4
:1008300041F4801143F4801338D0A0FB02CE4FF076
:100840000005E1FB02E506F00042E0FB03E54FF0A6
:100850000006E1FB03569CF0000F18BF4EF0010E9E
:10086000A4F1FF04B6F5007F64F5407404D25FEA9A
:100870004E0E6D4146EB060642EAC62141EA55514D
:100880004FEAC52040EA5E504FEACE2EB4F1FD0C8F
:1008900088BFBCF5E06F1ED8BEF1004F08BF5FEA0D
:1008A000500E50F1000041EB045170BD06F00046BF
:1008B00046EA010140EA020081EA0301B4EB5C046C
:1008C000C2BFD4EB0C0541EA045170BD41F4801164
:1008D0004FF0000E013C00F3AB8014F1360FDEBF89
:1008E000002001F0004170BDC4F10004203C35DA65
:1008F0000C341BDC04F11404C4F1200500FA05F3E8
:1009000020FA04F001FA05F240EA020001F0004288
:1009100021F0004110EBD37021FA04F642EB0601FE
:100920005EEA430E08BF20EAD37070BDC4F10C0428
:10093000C4F1200500FA04F320FA05F001FA04F2EC
:1009400040EA020001F0004110EBD37041F10001D8
:100950005EEA430E08BF20EAD37070BDC4F12005E3
:1009600000FA05F24EEA020E20FA04F301FA05F24B
:1009700043EA020321FA04F001F0004121FA04F2F3
:1009800020EA020000EBD3705EEA430E08BF20EAC3
:10099000D37070BD94F0000F0FD101F000464000FD
:1009A00041EB010111F4801F08BF013CF7D041EA7F
:1009B000060195F0000F18BF704703F00046520083
:1009C00043EB030313F4801F08BF013DF7D043EA54
:1009D0000603704794EA0C0F0CEA135518BF95EA0A
:1009E0000C0F0CD050EA410618BF52EA4306D1D191
:1009F00081EA030101F000414FF0000070BD50EAB0
:100A0000410606BF1046194652EA430619D094EA39
:100A10000C0F02D150EA013613D195EA0C0F05D123
:100A200052EA03361CBF104619460AD181EA030177
:100A300001F0004141F0FE4141F470014FF000002F
:100A400070BD41F0FE4141F4780170BD70B54FF0CA
:100A5000FF0C4CF4E06C1CEA11541DBF1CEA13554A
:100A600094EA0C0F95EA0C0F00F0A7F8A4EB05042C
:100A700081EA030E52EA03354FEA013100F0888023
:100A80004FEA03334FF0805545EA131343EA1263EC
:100A90004FEA022245EA111545EA10654FEA0026A1
:100AA0000EF000419D4208BF964244F1FD0404F55A
:100AB000407402D25B084FEA3202B61A65EB0305B6
:100AC0005B084FEA32024FF480104FF4002CB6EB73
:100AD000020E75EB030E22BFB61A754640EA0C00F3
:100AE0005B084FEA3202B6EB020E75EB030E22BF33
:100AF000B61A754640EA5C005B084FEA3202B6EB74
:100B0000020E75EB030E22BFB61A754640EA9C0032
:100B10005B084FEA3202B6EB020E75EB030E22BF02
:100B2000B61A754640EADC0055EA060E18D04FEAC0
:100B3000051545EA16754FEA06164FEAC30343EA60
:100B400052734FEAC2025FEA1C1CC0D111F4801F2D
:100B50000BD141EA00014FF000004FF0004CB6E726
:100B600011F4801F04BF01430020B4F1FD0C88BFC5
:100B7000BCF5E06F3FF6AFAEB5EB030C04BFB6EBD0
:100B8000020C5FEA500C50F1000041EB045170BDC3
:100B90000EF0004E4EEA113114EB5C04C2BFD4EBF0
:100BA0000C0541EA045170BD41F480114FF0000E74
:100BB000013C90E645EA060E8DE60CEA135594EAF0
:100BC0000C0F08BF95EA0C0F3FF43BAF94EA0C0FF3
:100BD0000AD150EA01347FF434AF95EA0C0F7FF468
:100BE00025AF104619462CE795EA0C0F06D152EABC
:100BF00003353FF4FDAE1046194622E750EA4106A0
:100C000018BF52EA43067FF4C5AE50EA41047FF4B0
:100C10000DAF52EA43057FF4EBAE12E74FF0FF3C15
:100C200006E000BF4FF0010C02E000BF4FF0010CE6
:100C30004DF804CD4FEA410C7FEA6C5C4FEA430C5F
:100C400018BF7FEA6C5C1BD001B050EA410C0CBFAE
:100C500052EA430C91EA030F02BF90EA020F002010
:100C6000704710F1000F91EA030F58BF994208BF77
:100C700090422CBFD8176FEAE37040F00100704734
:100C80004FEA410C7FEA6C5C02D150EA013C07D18B
:100C90004FEA430C7FEA6C5CD6D152EA033CD3D0D6
:100CA0005DF8040B704700BF8446104662468C46D0
:100CB0001946634600E000BF01B5FFF7B7FF002803
:100CC00048BF10F1000F01BD4DF808EDFFF7F4FF2C
:100CD0000CBF012000205DF808FB00BF4DF808EDB7
:100CE000FFF7EAFF34BF012000205DF808FB00BFDA
:100CF0004DF808EDFFF7E0FF94BF012000205DF8FC
:100D000008FB00BF4DF808EDFFF7CEFF94BF0120B0
:100D100000205DF808FB00BF4DF808EDFFF7C4FFA9
:100D200034BF012000205DF808FB00BF4FEA4102FC
:100D300012F5001215D211D56FF47873B3EB62522D
:100D400012D94FEAC12343F0004343EA505311F054
:100D5000004F23FA02F018BF404270474FF00000E6
:100D6000704750EA013005D111F0004008BF6FF024
:100D7000004070474FF00000704700BF53B94AB9B8
:100D8000002908BF00281CBF4FF0FF314FF0FF3093
:100D900000F0E2B8ADF1080C6DE904CE04F02AFBD6
:100DA000DDF804E0DDE9022304B0704700F134010E
:100DB00091E838009C46A6464CF8045D90E8FF0F89
:100DC000E54600BD90EC210B704700BF80EC210B85
:100DD000704700BF90EC200B704700BF80EC200BE9
:100DE000704700BFD0EC200B704700BFC0EC200B59
:100DF000704700BFF0EC0201F0EC0211F0EC0221B0
:100E0000F0EC0231F0EC0241F0EC0251F0EC026146
:100E1000F0EC0271F0EC0281F0EC0291F0EC02A136
:100E2000F0EC02B1F0EC02C1F0EC02D1F0EC02E126
:100E3000F0EC02F1704700BFE0EC0201E0EC0211BF
:100E4000E0EC0221E0EC0231E0EC0241E0EC025186
:100E5000E0EC0261E0EC0271E0EC0281E0EC029176
:100E6000E0EC02A1E0EC02B1E0EC02C1E0EC02D166
:100E7000E0EC02E1E0EC02F1704700BFB0FC018160
:100E8000B0FC0191B0FC01A1B0FC01B1704700BF02
:100E9000A0FC0181A0FC0191A0FC01A1A0FC01B17A
:100EA000704700BFEC4600B52DE900502DE9FF1F4B
:100EB0004FF000032DE90C0001A904F026FDDDF838
:100EC00040E012B0704700BFEC4600B52DE900507D
:100ED0002DE9FF1F4FF000032DE90C0001A904F0DC
:100EE0004BFDDDF840E012B0704700BFEC4600B5A6
:100EF0002DE900502DE9FF1F4FF000032DE90C00F4
:100F000001A904F059FDDDF840E012B0704700BFC0
:100F1000EC4600B52DE900502DE9FF1F4FF000030E
:100F20002DE90C0001AB04F01DFDDDF840E012B02E
:100F3000704700BFEC4600B52DE900502DE9FF1FBA
:100F40004FF000032DE90C0001AA04F087FDDDF845
:100F500040E012B0704700BF704700BF844641EACE
:100F6000000313F003036DD1403A41D351F8043B21
:100F700040F8043B51F8043B40F8043B51F8043B73
:100F800040F8043B51F8043B40F8043B51F8043B63
:100F900040F8043B51F8043B40F8043B51F8043B53
:100FA00040F8043B51F8043B40F8043B51F8043B43
:100FB00040F8043B51F8043B40F8043B51F8043B33
:100FC00040F8043B51F8043B40F8043B51F8043B23
:100FD00040F8043B51F8043B40F8043B51F8043B13
:100FE00040F8043B51F8043B40F8043B403ABDD282
:100FF000303211D351F8043B40F8043B51F8043B24
:1010000040F8043B51F8043B40F8043B51F8043BE2
:1010100040F8043B103AEDD20C3205D351F8043BB2
:1010200040F8043B043AF9D2043208D0D2071CBF7E
:1010300011F8013B00F8013B01D30B8803806046A7
:10104000704700BF082A13D38B078DD010F003031D
:101050008AD0C3F10403D21ADB071CBF11F8013B8D
:1010600000F8013B80D331F8023B20F8023B7BE7DC
:10107000043AD9D3013A11F8013B00F8013BF9D207
:101080000B7803704B7843708B78837060467047A1
:1010900010B5054C237833B9044B13B10448AFF3B2
:1010A00000800123237010BD4C05002000000000CB
:1010B000BC62000808B5034B1BB103490348AFF3FA
:1010C000008008BD0000000050050020BC62000840
:1010D0002DE9F04100F08BFA8046002437E02046ED
:1010E000FFF720FB06460F461FA3D3E90023FFF7B7
:1010F00083FB00221A4BFFF7A9FC41EC100B02F016
:1011000057FD51EC100B0022164BFFF775FBFFF754
:101110000DFE650028F815000FA3D3E90023304623
:101120003946FFF769FB00220D4BFFF78FFC41ECBE
:10113000100B02F03DFD51EC100B0022094BFFF7A4
:101140005BFBFFF7F3FD013528F815000134B4F51A
:10115000005FC4DBBDE8F081182D4454FB214940F9
:1011600000409F4000407F405E3855297A6A4F40DA
:1011700010B5ADF5004D84B0144613460A4601463D
:1011800001A800F015FA9FED070A01A8FFF7A0FFDC
:10119000204600F03DFA0028FAD001A800F011FA2C
:1011A000F6E700BF0000C843F0B58BB000240594FB
:1011B000069407940894099401942B4B1A6B42F0FF
:1011C00004021A631A6B02F004020192019A02945B
:1011D0001A6B42F080021A631A6B02F080020292CC
:1011E000029A03941A6B42F001021A631A6B02F01E
:1011F00001020392039A04941A6B42F002021A63EA
:101200001B6B03F002030493049B184D22461A2122
:10121000284600F03BFF164E224640F20141304680
:1012200000F034FF1A2305930127069707940894CA
:1012300005A9284600F046FE40F2014305930697B3
:101240000794089405A9304600F03CFE4FF48073E3
:1012500005930223069307940894099405A9284648
:1012600000F030FE0BB0F0BD00380240000002403C
:101270000004024000B583B000210191094B1A6BB4
:1012800042F400121A631B6B03F400130193019BD9
:101290000A460F2000F0DEFB0F2000F0EBFB03B04E
:1012A0005DF804FB0038024008B50249024800F02E
:1012B000A3F908BD940600206C05002008B5034B77
:1012C000186803681B68984708BD00BF68050020C0
:1012D000014B43F8201070476805002072B6FEE706
:1012E00008B50A480A4B03600A4B43600023836039
:1012F000C3604FF48042026143618361C361036252
:1013000000F0CAFE00B908BDFFF7E8FFDC060020C8
:1013100000540040A086010008B50B480B4B036049
:101320004FF400734360102383600523C3600023E0
:101330000361074A42618361C361036200F08AFF6F
:1013400000B908BDFFF7CAFF94060020003800402E
:101350000077010008B50D480D4B03604FF4827310
:10136000436000238360C360036143614FF40072F4
:101370008261C3610362436283620A23C36202F033
:10138000C4F900B908BDFFF7A9FF00BFBC050020E4
:101390000030014008B50B480B4B03604FF4E133BC
:1013A000436000238360C36003610C2242614FF4F9
:1013B00040728261C36102F08FFA00B908BDFFF785
:1013C0008DFF00BF780500200010014010B590B0DF
:1013D00000240B940C940D940E940F940A942822DC
:1013E0002146684603F0AAFD2B482C4B036044605D
:1013F0007F238360FF23C3604FF4001303614FF426
:10140000801343614FF48023836101F0A2FF002821
:1014100039D100238DF82C308DF82D308DF82E30F9
:101420000E930F9301220BA91B4801F0E5FF60BB4F
:1014300001228DF828208DF829208DF82A200023FC
:101440008DF82B300AA9144802F036F8F8B90023B9
:101450008DF800308DF8013010228DF802200193B4
:10146000039304930E4A05920693079301228DF885
:1014700020204FF4807309936946074802F06AF808
:1014800038B910B010BDFFF729FFFFF727FFFFF7AE
:1014900025FFFFF723FF00BF1406002000280040AF
:1014A0000080808000B595B03022002108A803F0AC
:1014B00045FD00230393049305930693079301933B
:1014C000254A116C41F080511164126C02F0805277
:1014D0000192019A0293214A136823F4404343F492
:1014E00000431360136803F440430293029B0B23F1
:1014F00008934FF48033099301230B9310220C922D
:101500000D9302230E934FF480020F921922109232
:10151000A822119212930423139308A801F032FA1F
:10152000A8B90F23039302210491002305934FF4DC
:1015300080520692079303A801F0C2FC48B900222A
:101540001146104601F01AFC15B05DF804FBFFF7D8
:10155000C5FEFFF7C3FE00BF003802400070004028
:1015600010B500F005FAFFF79DFFFFF71DFEFFF72E
:1015700081FEFFF7B5FEFFF7CFFEFFF7EBFEFFF7AB
:1015800009FFFFF723FF054C21460020FFF7A0FECF
:10159000224603490348FFF7EBFDFEE76C050020F8
:1015A00034060020DC06002008B5FFF77DFE08BDEC
:1015B00000F5004CCCF80030CCF80420CCF8081032
:1015C000704710B5044604F500431B68986890F80E
:1015D0004130DBB2012BF6D14FF48042214600F0BE
:1015E00007FF04F50044206800F014F810BD7047B0
:1015F0000123037170470000034A0260034A02603E
:1016000001220271816070471463000820630008A2
:1016100000797047002303717047000082B00021F9
:1016200000910B4B5A6C42F480425A645A6C02F49B
:1016300080420092009A01911A6C42F080521A6422
:101640001B6C03F080530193019B02B0704700BFF5
:101650000038024030B589B000230393049305930A
:10166000069307930268144B9A4201D009B030BD2B
:1016700000250195114C236B43F002032363236B78
:1016800003F002030193019BC023039312230493ED
:10169000032306930423079303A9094800F012FCCF
:1016A0000295236C43F400132364236C03F40013AA
:1016B0000293029BDAE700BF00540040003802406A
:1016C0000004024030B58DB00023079308930993BE
:1016D0000A930B9302930393049305930693026872
:1016E000294B9A4201D00DB030BD0446012302932C
:1016F000C02303930423049302A801F0B7FC00283D
:101700003CD100250095214B1A6C42F480421A64AA
:101710001A6C02F480420092009A01951A6B42F012
:1017200002021A631B6B03F002030193019B4FF447
:10173000304307930223089309950A9505230B93D9
:1017400007A9134800F0BEFB1248134B0360456025
:1017500040238360C5604FF4806303614FF40063EE
:1017600043614FF400538361C5610562456200F037
:101770001FFA30B9074BA3639C63B4E7FFF7AEFDD4
:10178000BFE7FFF7ABFDF5E7003800400038024047
:1017900000040240340600207060024000B587B0AB
:1017A00000230193029303930493059302680F4B64
:1017B0009A4202D007B05DF804FB022301934FF474
:1017C0000073049301A801F051FC60B9084B012299
:1017D000C3F83C2E00221146292000F03BF92920B5
:1017E00000F048F9E6E7FFF779FDEFE70028004051
:1017F0000000474200B589B000230393049305938A
:10180000069307930268154B9A4202D009B05DF81F
:1018100004FB0021019103F584335A6C42F4805299
:101820005A645A6C02F480520192019A02911A6B26
:1018300042F001021A631B6B03F001030293029B47
:10184000E0230393022304930323069305230793C2
:1018500003A9034800F036FBD8E700BF0030014081
:101860000000024000B589B0002303930493059360
:1018700006930793026803F1804303F588339A4285
:1018800002D009B05DF804FB0021019103F5943307
:101890005A6C42F010025A645A6C02F01002019223
:1018A000019A02911A6B42F001021A631B6B03F05A
:1018B00001030293029B4FF4F0530393022304931A
:1018C000032306930723079303A9024800F0FAFABB
:1018D000D7E700BF00000240FEE7FEE7FEE7FEE7B5
:1018E000FEE770477047704708B500F05BF808BD29
:1018F00008B5024800F0F8F908BD00BF3406002022
:1019000008B5024801F0A4FC08BD00BF1406002081
:10191000034AD2F8883043F47003C2F88830704725
:1019200000ED00E010B504460E4B1A784FF47A73C0
:10193000B3FBF2F30C4A1068B0FBF3F000F0A8F828
:1019400068B90F2C01D901200AE0002221464FF08E
:10195000FF3000F07FF8054B1C60002000E0012004
:1019600010BD00BF0400002000000020080000207F
:1019700008B50B4B1A6842F400721A601A6842F4F8
:1019800080621A601A6842F480721A60032000F0C4
:101990004FF80F20FFF7C6FFFFF740FE002008BDFD
:1019A000003C0240034A1168034B1B780B44136050
:1019B000704700BF3007002004000020014B18686A
:1019C000704700BF30070020002808DB0901C9B2BA
:1019D00000F1604000F5614080F80013704700F0AE
:1019E0000F000901C9B2014B1954704714ED00E012
:1019F00000B500F00700C0F1070CBCF1040F28BFD0
:101A00004FF0040C031D062B0FD9C31E4FF0FF3EF1
:101A10000EFA0CF021EA000199400EFA03FE22EAC8
:101A20000E0241EA02005DF804FB0023EEE700002D
:101A3000074AD36823F4E0631B041B0C000200F484
:101A4000E060034343F0BF6343F40033D360704767
:101A500000ED00E010B50446054BD868C0F3022045
:101A6000FFF7C6FF01462046FFF7AEFF10BD00BFDF
:101A700000ED00E0002807DB00F01F024009012311
:101A80009340024A42F82030704700BF00E100E076
:101A90000138B0F1807F0BD24FF0E0235861054A46
:101AA000F02182F823100020986107221A61704704
:101AB0000120704700ED00E030B405682C6824F484
:101AC00080242C60046863608368402B05D0036821
:101AD00099600368DA6030BC704703689A600368F5
:101AE000D960F8E710B40368D9B210390A4AA2FBEA
:101AF00001421209094CA25CC2655F2907D96FF344
:101B0000090304338365806D5DF8044B70476FF300
:101B100009038365F7E700BFABAAAAAA3C630008E4
:101B2000836A826992B9012B0AD0022B02D00BB1D1
:101B300000207047C36A13F0807F28D100207047CF
:101B4000C36AB3F1C07F24D000207047B2F5005FB4
:101B500009D0022B25D9032B25D1C36A13F0807F2E
:101B600023D100207047032B03D8DFE803F01404CF
:101B7000140A00207047C36A13F0807F0DD1002043
:101B80007047C36AB3F1C07F09D0002070470120BD
:101B900070470120704701207047012070470120E5
:101BA00070470120704700207047012070470000F7
:101BB00070B50446FFF702FF002C5BD005460223F8
:101BC00084F83530002384F834302268136823F019
:101BD0000103136023681A6812F0010F0AD0FFF79F
:101BE000EDFE431B052BF5D920236365032084F804
:101BF000350070BD1A68204911406268A068024330
:101C0000E06802432069024360690243A06902431D
:101C1000E0690243206A02430A43616A04291ED034
:101C20001A602668756925F00705636A1D43042B51
:101C300007D1A36A1D43E36A1BB12046FFF770FF7B
:101C400090B975612046FFF74DFFE26D3F23934049
:101C5000836000206065012384F83530C9E7E16ABC
:101C6000206B01430A43DBE740236365012084F8CE
:101C70003500BEE70120BCE73F8010F038B50446D0
:101C8000856D90F8340001282BD0012084F83400B1
:101C900094F83500C0B2012804D0002384F8343011
:101CA000022038BD022084F83500002060652046FF
:101CB000FFF702FFE26D3F239340AB602268136899
:101CC00043F016031360236C23B12268136843F0BA
:101CD000080313602268136843F0010313600020B7
:101CE000DFE70220DDE70000F0B583B00446002303
:101CF0000193724B1D68724BA3FB0535AD0A876DCE
:101D00003E68C26D08239340334210D003681A68BE
:101D100012F0040F0BD01A6822F004021A60C26D90
:101D200008239340BB60436D43F001034365E26DBC
:101D300001239340334209D02268526912F0800F88
:101D400004D0BB60636D43F002036365E26D04235E
:101D50009340334209D02268126812F0020F04D077
:101D6000BB60636D43F004036365E26D1023934031
:101D7000334224D02268126812F0080F1FD0BB60D3
:101D800023681A6812F4802F0DD01B6813F4002FFB
:101D900004D1236C9BB12046984710E0A36C73B12B
:101DA000204698470BE01A6812F4807F03D11A6826
:101DB00022F008021A60236C0BB120469847E26DAE
:101DC00020239340334255D02268126812F0100F3E
:101DD00050D0BB6094F83530DBB2052B0ED02368B1
:101DE0001A6812F4802F33D01B6813F4002F2AD105
:101DF000636C002B3ED0204698473BE02268136876
:101E000023F0160313602268536923F080035361A3
:101E1000236CA3B12268136823F008031360E26DFA
:101E20003F239340BB60012384F83530002384F8BE
:101E30003430236D002B3FD0204698473CE0A36C04
:101E4000002BE7D1EBE7E36BA3B12046984711E005
:101E50001A6812F4807F09D11A6822F010021A6001
:101E6000012384F83530002384F83430E36B0BB160
:101E700020469847636DFBB1636D13F0010F17D0D7
:101E8000052384F835302268136823F001031360BA
:101E9000019B01330193AB4204D823681B6813F004
:101EA000010FF5D1012384F83530002384F8343054
:101EB000E36C0BB12046984703B0F0BD0000002052
:101EC000B5814E1B00230F2B00F2D78070B582B076
:101ED00065E085684FEA430E032404FA0EF425EA10
:101EE0000405CC6804FA0EF42C438460446824EAA8
:101EF00002044A68C2F300129A40224342605CE046
:101F0000DC08083450F8242003F00705AD004FF03A
:101F10000F0E0EFA05FE22EA0E0E0A69AA4042EAE8
:101F20000E0240F824205CE0042200E0002202FAC5
:101F30000EF22A430234514D45F82420504A946849
:101F40006FEA0C0224EA0C054E6816F4801F01D0DB
:101F50004CEA04054A4CA560E46802EA04054E68B0
:101F600016F4001F01D04CEA0405454CE560646896
:101F700002EA04054E6816F4003F01D04CEA04055D
:101F80003F4C6560246822404D6815F4803F01D0C5
:101F90004CEA04023A4C226001330F2B6BD8012229
:101FA0009A400C6804EA020C32EA0404F4D14C684A
:101FB00004F00304013C012C8BD94A6802F00302AF
:101FC000032A09D0C4685D000322AA4024EA02045F
:101FD0008A68AA402243C2604A6802F00302022AC9
:101FE0008ED004684FEA430E032202FA0EF224EA6E
:101FF00002044A6802F0030202FA0EF2224302606F
:102000004A6812F4403FC7D0002201921D4A546C26
:1020100044F480445464526C02F480420192019A68
:102020009C08A51C154A52F8255003F0030E4FEAF0
:102030008E0E0F2202FA0EF225EA0205124A904293
:102040003FF474AF02F5806290420ED002F58062D8
:1020500090420CD002F5806290420AD002F5806274
:1020600090423FF461AF072261E701225FE702225D
:102070005DE703225BE702B070BD704700380140A6
:10208000003C014000380240000002400AB181617A
:102090007047090481617047002800F0CC8070B55A
:1020A000044690F83D30002B77D0242384F83D304F
:1020B0002268136823F0010313602268136843F455
:1020C000004313602268136823F40043136000F098
:1020D000ADFF62685A4B9A4264D85A4B98428CBF03
:1020E00000230123002B40F0A8805749A1FB0031B9
:1020F0008B0C25686A6822F03F0242EA91426A60CE
:1021000021680A6A22F03F0266684D4DAE424FD800
:10211000013313430B622168CA6922F44F4222F053
:10212000FF026568464B9D424CD8431E6D00B3FBD1
:10213000F5F3013340F6FC70034278D0C3F30B0390
:102140001A43CA6121680B6823F0C003E269206A60
:10215000024313430B6021688B6823F4034323F08D
:10216000FF032269E068024313438B602168CB6858
:1021700023F0FF036269A06902431343CB60226826
:10218000136843F00103136000202064202384F8C7
:102190003D30206384F83E0070BD80F83C30FFF78E
:1021A00059FA82E7294B98428CBF0023012399E713
:1021B0004FF4967505FB03F3254DA5FB03539B09CF
:1021C0000133A6E7A668BEB9431E05EB450CB3FB79
:1021D000FCF30133C3F30B03B3FA83F35B0943BB93
:1021E000C6B9431E05EB4505B3FBF5F30133C3F355
:1021F0000B0343F40043A3E7431E05EB850C0CEBF4
:102200008C0CB3FBFCF30133C3F30B03B3FA83F37E
:102210005B09E4E7431E05EB850505EB8505B3FB8C
:10222000F5F30133C3F30B0343F4404388E704237E
:1022300086E7012384E7012070470120ACE700BF57
:10224000A08601007F841E0083DE1B43FF083D0043
:10225000D34D6210002800F0BF8038B5044690F8D6
:102260004130002B51D0022284F841202168CB69F3
:1022700023F47B6323F00F03CB6123681A62636945
:10228000934263D0E368002B46D11025A368202B2E
:1022900000D86D00012000F09FFF2369B3F5007F97
:1022A0003CD0B0FBF5F000EB800043006269B3FB6B
:1022B000F2F30533494AA2FB0323C3F3C002C2EB86
:1022C000D3035B0811029A1EFD2A41D822690A43F2
:1022D00021681A430A622168CB6923F47B6323F0E7
:1022E0000F036268A0680243E0680243A0690243EA
:1022F000134343F40063CB61236A012B2ED00020EB
:102300006064012384F8413038BD80F84030344B9C
:102310004363FFF7D7F9A6E72025B7E7E36853B192
:10232000AD00B0FBF5F000EB800043006269B3FB49
:10233000F2F30533BEE7ED00B0FBF5F000EB8000F3
:1023400043006269B3FBF2F30533B3E70021BAE758
:10235000636C43F0100363640120D5E7214B636392
:102360002268214B9A421FD04FF04022D36923F4B8
:102370007B6323F00F03D36122681B4B9A4215D075
:102380004FF0402302221A622268174B9A4210D063
:102390004FF04025EB699BB26268B2F5007F0AD02E
:1023A000C2B94FF4807008E0104ADFE7A3F58063FC
:1023B000E8E70E4DEEE74FF48070B4F808C0A1894D
:1023C000228B40EA0C0001430A43134343F40063A9
:1023D000EB6194E70020F0E701207047CDCCCCCC36
:1023E00071250008AD270008003800400034004087
:1023F00000295ED038B50446002A5CD094F84030FD
:10240000DBB2012B59D0012384F8403094F84150BD
:10241000EDB29D4210D1032384F841300023636460
:1024200061622368DB6903F00703032B09D0052BE6
:1024300007D02285628508E0002384F8403002201E
:102440003AE0520092B222856285A36B1C4A1A645C
:10245000A36B1C4ADA63A36B1B4ADA642268238DE0
:102460009BB20C32616AA06BFFF708FCA8B9236825
:10247000DA6912F4806F03D1DA6942F48062DA61BA
:1024800023685A6812F0020F03D15A6842F0020220
:102490005A60002384F840300EE0636C43F0080378
:1024A0006364012384F84130002384F840302846D7
:1024B00002E001207047012038BD0220FCE700BF88
:1024C000CF2400081125000841260008704708B5F0
:1024D000806BFFF7FBFF08BD08B5426A03681288EE
:1024E000DA60436A02334362438D9BB2013B9BB285
:1024F0004385438D9BB203B108BD0268536823F046
:10250000A0035360012380F84130FEF7D7FEF3E7C4
:1025100008B50346806BDB694BB90268536823F04A
:102520000203536000234385012380F84130FEF706
:10253000C5FE08BD704708B50368DA68C36A1A802B
:10254000C36A0233C362438E9BB2013B9BB2438694
:10255000438E9BB203B108BD0268536823F0600349
:102560005360012380F84130FFF7E4FFF3E7704741
:1025700010B584B0044602689368039390F8413024
:10258000DBB2042B06D094F84130DBB2032B2CD005
:1025900004B010BD039B13F0010F03D0536813F078
:1025A000400F1FD1039B13F0400FECD023685A68F3
:1025B00012F0200FE7D05A6822F060025A60002320
:1025C00001932368DA6801929B680193019B0123C0
:1025D00084F84130636C43F0020363642046FFF7E4
:1025E000C6FFD0E7FFF7A7FFDCE7039B13F0020F5E
:1025F00004D023685B6813F0800F1DD1039B13F098
:10260000080FC5D023685A6812F0200FC0D05A684E
:1026100022F0A0025A600023029323689B68029371
:10262000029B012384F84130636C43F0040363642C
:102630002046FFF79CFFABE72046FFF74DFFDDE7A5
:1026400008B5806B0268536823F0030353600023CE
:1026500043854386012380F84130436C43F00803EF
:102660004364FFF784FF08BD704708B5436A9A1CAE
:10267000426202681B88D360438D9BB2013B9BB2D0
:102680004385438D9BB23BB90268536823F0A00396
:102690005360438E9BB203B108BD012380F84130E3
:1026A000FFF7E2FFF8E7000008B50268154B9A4211
:1026B0001CD04FF04023DA68C36A991CC1621A80AB
:1026C000438E9BB2013B9BB24386438E9BB263B960
:1026D00002680C4B9A420CD04FF04022536823F012
:1026E00060035360438D9BB22BB108BDA3F580639B
:1026F000E1E7054AF2E7012380F84130FFF7B4FF34
:10270000F3E700BF003800400034004008B5436ADA
:102710009A1C42621A880168134B994218D04FF0F4
:102720004023DA60438D9BB2013B9BB24385438DCE
:102730009BB263B902680C4B9A420CD04FF0402216
:10274000536823F0A0035360438E9BB22BB108BDA6
:10275000A3F58063E5E7054AF2E7012380F84130FD
:10276000FFF782FFF3E700BF00380040003400406D
:1027700008B50368DA68C36A991CC1621A80438E7F
:102780009BB2013B9BB24386438E9BB23BB902682E
:10279000536823F060035360438D9BB203B108BDBF
:1027A000012380F84130FFF75FFFF8E710B586B0EE
:1027B000044603689A680592704A93426FD04FF0BE
:1027C0004022916804915B680393536802936368A5
:1027D000B3F5007F01D0002B70D1059B13F0020FE1
:1027E00003D0039B13F0800F5CD1049B13F0010F07
:1027F00003D0029B13F0400F58D1049B13F0400FFD
:1028000024D0029B13F0200F20D022685B4B9A4209
:1028100050D04FF04022536823F060035360226889
:10282000536823F0A0035360002300932368DA6801
:1028300000929B680093009B012384F84130636CF5
:1028400043F0020363642046FFF791FE059B13F0FB
:10285000080F22D0039B13F0200F1ED0226853686C
:1028600023F0A00353602268444B9A4224D04FF0D7
:102870004022536823F060035360002301932368D0
:102880009B680193019B012384F84130636C43F002
:10289000040363642046FFF76AFE06B010BDA2F58C
:1028A00080628EE72046FFF7E0FE9EE72046FFF7B6
:1028B000FBFEA2E7324AAEE7314ADAE7049B13F0A7
:1028C000020F03D0029B13F0800F4AD1059B13F037
:1028D000010F03D0039B13F0400F46D1059B13F06B
:1028E000400F1CD0039B13F0200F18D022685368B0
:1028F00023F0600353602268204B9A4239D04FF096
:102900004022536823F0A0035360012384F8413030
:10291000636C43F0020363642046FFF728FE049BC8
:1029200013F0080FB9D0029B13F0200FB5D0226826
:10293000124B9A421FD04FF04022536823F0A0035D
:1029400053602268536823F060035360012384F8C6
:102950004130636C43F0040363642046FFF707FED5
:102960009BE72046FFF7D2FEB0E72046FFF700FFC7
:10297000B4E7034AC5E7024ADFE700BF003800407A
:1029800000340040002800F0E08170B582B00446B9
:10299000036813F0010F3BD09F4B9B6803F00C03BF
:1029A000042B2CD09C4B9B6803F00C03082B21D0EC
:1029B0006368B3F5803F4FD0B3F5A02F52D0964B4C
:1029C0001A6822F480321A601A6822F480221A608F
:1029D0006368002B50D0FEF7F1FF05468E4B1B6855
:1029E00013F4003F14D1FEF7E9FF401B6428F5D92A
:1029F0000320B1E1884B5B6813F4800FD8D0864B7D
:102A00001B6813F4003F03D06368002B00F09F8124
:102A1000236813F0020F54D07F4B9B6813F00C0F08
:102A20003ED07D4B9B6803F00C03082B33D0E3684A
:102A3000002B68D0794B01221A60FEF7BFFF0546D4
:102A4000754B1B6813F0020F54D1FEF7B7FF401B04
:102A50000228F5D903207FE16F4A136843F48033DD
:102A60001360B5E76C4B1A6842F480221A601A684A
:102A700042F480321A60ABE7FEF7A0FF0546664BD2
:102A80001B6813F4003FC3D0FEF798FF401B642877
:102A9000F5D9032060E1604B5B6813F4800FC6D169
:102AA0005D4B1B6813F0020F03D0E368012B40F06D
:102AB0005081594A136823F0F803216943EAC1039E
:102AC0001360236813F0080F42D063696BB3534B54
:102AD0000122C3F8802EFEF771FF05464E4B5B6F57
:102AE00013F0020F34D1FEF769FF401B0228F5D91D
:102AF000032031E1484A136823F0F803216943EACF
:102B0000C1031360DDE7454B00221A60FEF756FF54
:102B10000546414B1B6813F0020FD2D0FEF74EFF63
:102B2000401B0228F5D9032016E13C4B0022C3F8D4
:102B3000802EFEF743FF0546374B5B6F13F0020F05
:102B400006D0FEF73BFF401B0228F5D9032003E126
:102B5000236813F0040F77D02F4B1B6C13F0805FAA
:102B600033D1002301932C4B1A6C42F080521A642B
:102B70001B6C03F080530193019B0125284B1B68BC
:102B800013F4807F23D0A368012B34D0052B38D0D9
:102B9000214B1A6F22F001021A671A6F22F0040209
:102BA0001A67A368002B3DD0FEF708FF06461A4BB4
:102BB0001B6F13F0020F46D1FEF700FF801B41F29E
:102BC00088339842F3D90320C6E00025D6E7144A9B
:102BD000136843F480731360FEF7F0FE0646104B53
:102BE0001B6813F4807FCED1FEF7E8FE801B02281D
:102BF000F5D90320B0E0084A136F43F001031367CF
:102C0000CFE7054B1A6F42F004021A671A6F42F0C1
:102C100001021A67C5E700BF0038024000004742C2
:102C200000700040FEF7CAFE0646524B1B6F13F0C1
:102C3000020F08D0FEF7C2FE801B41F28833984293
:102C4000F3D9032088E0EDB9A369002B00F083805D
:102C5000484A926802F00C02082A51D0022B17D081
:102C6000454B00221A66FEF7A9FE0446414B1B683D
:102C700013F0007F42D0FEF7A1FE001B0228F5D919
:102C8000032069E03B4A136C23F080531364DBE7B5
:102C9000394B00221A66FEF791FE0546354B1B683C
:102CA00013F0007F06D0FEF789FE401B0228F5D9FD
:102CB000032051E0E369226A1343626A43EA821304
:102CC000A26A5208013A43EA0243E26A43EA026313
:102CD000284A5360284B01221A66FEF76FFE04460D
:102CE000244B1B6813F0007F06D1FEF767FE001B24
:102CF0000228F5D903202FE000202DE000202BE052
:102D0000012B2BD01B4B5B6803F48001E2699142DD
:102D100026D103F03F02216A8A4223D1616A47F635
:102D2000C0721A40B2EB811F1ED103F44031A26A77
:102D30005208013AB1EB024F18D103F07063E26A16
:102D4000B3EB026F14D1002006E001207047012090
:102D500002E0012000E0002002B070BD0120FBE78E
:102D60000120F9E70120F7E70120F5E70120F3E76B
:102D70000120F1E7003802400000474270B588B0FA
:102D80000C46154600BB00230193204E326B42F0E7
:102D900001023263326B02F001020192019A4FF498
:102DA00080720392022204920322069205930793F3
:102DB00003A91748FFF786F8B36823F0EC632543AF
:102DC0001D43B56008B070BD002302930F4E326BF7
:102DD00042F004023263326B02F004020292029A61
:102DE0004FF400720392022204920322069205938A
:102DF000079303A90748FFF765F8B36823F0784302
:102E000044EAC5041C43B460DCE700BF003802405C
:102E1000000002400008024008B5264B9B6803F002
:102E20000C03042B41D0082B41D1224B5A6802F0ED
:102E30003F025B6813F4800F12D01E4B5968C1F338
:102E400088111D480023A1FB0001FDF797FF194BD6
:102E50005B68C3F3014301335B00B0FBF3F008BDD3
:102E6000144B5868C0F388104FEA401CBCEB000CB0
:102E70006EEB0E0E4FEA8E1343EA9C634FEA8C1101
:102E8000B1EB0C0163EB0E03DB0043EA5173C900A5
:102E900011EB000C43F10003990200234FEA8C2050
:102EA00041EA9C51FDF76AFFD1E70348D7E70348A1
:102EB000D5E700BF0038024040787D010024F400CF
:102EC000002800F09B8070B50D4604464F4B1B68F0
:102ED00003F007038B4208D2CBB24C4A137013683D
:102EE00003F007038B4240F08B80236813F0020F3E
:102EF00017D013F0040F04D0454A936843F4E0530D
:102F00009360236813F0080F04D0414A936843F498
:102F1000604393603E4A936823F0F003A1680B433B
:102F20009360236813F0010F32D06368012B21D026
:102F30009A1E012A25D9364A126812F0020F61D072
:102F400033498A6822F0030213438B60FEF736FD93
:102F500006462F4B9B6803F00C036268B3EB820FAD
:102F600016D0FEF72BFD801B41F288339842F0D932
:102F7000032042E0264A126812F4003FE0D101200B
:102F80003BE0234A126812F0007FD9D1012034E0DF
:102F90001E4B1B6803F00703AB4207D9EAB21B4B79
:102FA0001A701B6803F00703AB422DD1236813F09E
:102FB000040F06D0164A936823F4E053E1680B43EC
:102FC0009360236813F0080F07D0114A936823F425
:102FD0006043216943EAC1039360FFF71DFF0C4B77
:102FE0009B68C3F303130B4AD35CD8400A4B1860A9
:102FF0000A4B1868FEF796FC002070BD0120704750
:103000000120FAE70120F8E70120F6E7003C024042
:10301000003802402C630008000000200800002057
:10302000014B1868704700BF0000002008B5FFF78B
:10303000F7FF044B9B68C3F38223034AD35CD84059
:1030400008BD00BF003802402463000808B5FFF740
:10305000E7FF044B9B68C3F34233034AD35CD84079
:1030600008BD00BF003802402463000830B583B0BB
:103070000446036813F0050F0ED1236813F0020F06
:1030800036D1236813F0080F00F09B80227C4E4B52
:10309000C3F8E021002095E04C4B00229A66FEF731
:1030A0008DFC05464A4B1B6813F0006F06D0FEF7F7
:1030B00085FC431B022BF5D9032083E06268A368DB
:1030C0001B0743EA8213424AC2F884303F4B012275
:1030D0009A66FEF773FC05463D4B1B6813F0006FC4
:1030E000CBD1FEF76BFC401B0228F5D9032069E029
:1030F00000230193364B1A6C42F080521A641B6C09
:1031000003F080530193019B324A136843F48073A8
:103110001360FEF753FC05462E4B1B6813F4807FAB
:1031200006D1FEF74BFC431B022BF5D9032049E0E7
:10313000274B1B6F13F4407314D0E26802F4407203
:103140009A420FD0224B1A6F22F440721F4901207D
:10315000C1F8400E0020C1F8400E1A671B6F13F033
:10316000010F12D1E36803F44072B2F5407F1DD025
:10317000174A936823F4F813936015490B6FE268BC
:10318000C2F30B0213430B677BE7FEF717FC054600
:103190000F4B1B6F13F0020FE4D1FEF70FFC401B27
:1031A00041F288339842F3D903200BE008498A683A
:1031B00022F4F81223F0704323F4407313438B601E
:1031C000DBE7002003B030BD00104742000047425B
:1031D0000038024000700040012801D000207047F4
:1031E000164B9B6813F4000303D0012B23D1144822
:1031F0007047124B5B6813F4800F14D00F4B5A6862
:1032000002F03F020F4BB3FBF2F30C4AD2F88400FA
:10321000C0F3881003FB00F0D2F88430C3F30273CC
:10322000B0FBF3F07047054B5A6802F03F02064BC3
:10323000B3FBF2F3E9E70020704700BF003802401B
:103240000080BB0040787D010024F400704700003E
:1032500010B5044603689A6812F4805F03D0DB68F7
:1032600013F4807F0FD123689A6812F4005F03D0B3
:10327000DB6813F4007F0FD10C4B4FF400325A611E
:103280000123637710BDFFF7E1FF2268D368DBB24B
:1032900063F4C073D360E6E7204600F035FA226895
:1032A000D368DBB263F42073D360E5E7003C0140F0
:1032B00038B504460268D36823F0A003D360FEF754
:1032C0007DFB05462368DB6813F0200F07D1FEF76E
:1032D00075FB401BB0F57A7FF4D9032000E0002095
:1032E00038BD70B50368DA6812F0400F02D00025CF
:1032F000284670BD0446DA6842F08002DA60FEF7C4
:103300005DFB064600252368DB6813F0400FEFD114
:10331000002DEDD1FEF752FB831BB3F57A7FF2D976
:10332000042363770125EEE70268D36823F0800366
:10333000D36003689B6813F0200F01D00020704712
:1033400010B50446FFF7B4FF10B1042363770120E2
:1033500010BD002842D010B50446437F7BB1022344
:1033600063772368CA225A62236853225A6220462E
:10337000FFF7B7FF38B12368FF225A6210BD037709
:10338000FEF70CFAEBE72268936823F4E00323F0DE
:103390004003936021688A68636820690343606919
:1033A000034313438B602368E2681A612268136940
:1033B000A16843EA014313612046FFF7B5FF0028E7
:1033C000D9D12268136C23F4802313642268136C10
:1033D000A1690B43136401236377CCE70120704795
:1033E000002303E00133DBB20A38C0B20928F9D860
:1033F0001B01DBB218437047037F012B5AD070B515
:1034000004460E46012303770223437732BB036849
:103410009B6813F0400F01D10023CB703078FFF789
:10342000DFFF05047078FFF7DBFF45EA0025B07881
:10343000FFF7D6FF0543F37845EA83552368CA2290
:103440005A62236853225A622046FFF74AFFB8B1F6
:103450002368FF225A620023237770BD03689B68AC
:1034600013F0400F01D10023CB70337875782D0213
:1034700045EA0345B3781D43F37845EA8355DDE714
:10348000236805F07F3525F0FE451D6022689368AE
:1034900023F48023936021688B68F26830690243CB
:1034A00013438B602046FFF73FFF0028D0D1012354
:1034B0006377CDE702207047037F012B48D070B5BA
:1034C00004460E460123037702234377CAB1CB7823
:1034D0004D782D0245EA03458B781D430B7845EA6C
:1034E00043352368CA225A62236853225A6220460F
:1034F000FFF7F7FEF0B12368FF225A62002323771B
:1035000070BD4B7813F0100F03D003F0EF030A33B4
:103510004B70F078FFF764FF05047078FFF760FFE9
:1035200045EA0025B078FFF75BFF0543337845EAAD
:103530004335D6E7236825F07F4525F0C0055D605B
:103540002046FFF7F1FE0028D5D101236377D2E7AB
:103550000220704770B582B00D46684B1B68684901
:10356000A1FB0313DB0A4FF47A7101FB03F3019310
:10357000037F012B00F0C080044601230377022360
:103580004377002A6CD103689B6813F0400F01D188
:103590000023EB702878FFF723FF06046878FFF715
:1035A0001FFF46EA0026A878FFF71AFF0643EB78CC
:1035B00046EA835695F82000FFF712FF46EA0062BC
:1035C000EB691A436B691A436868AB69184323684F
:1035D000CA2159622368532159626B6AB3F5807F0F
:1035E00058D021688B6823F400738B602168CB6806
:1035F000DBB263F42073CB60404B1B684049A1FBF6
:103600000313DB0A4FF47A7101FB03F30193019B6F
:10361000591E0191002B67D02368D96811F0020F61
:10362000F5D01A62236898642268936843F40073A3
:1036300093602268936843F400539360314B1A6897
:1036400042F400321A609A6842F400329A602368A9
:10365000FF225A62012363770020207702B070BDF9
:1036600003689B6813F0400F01D10023EB702B78A7
:103670006A78120242EA0342AB781A43EB7842EAD4
:10368000835295F8203042EA0362EB691A436B6972
:103690001A4399E721688B6823F480738B60216853
:1036A000CB68DBB263F4C073CB60019B591E019100
:1036B00093B12368D96811F0010FF6D0DA6123685D
:1036C00058642268936843F4807393602268936817
:1036D00043F480539360B1E72368FF225A620320CA
:1036E000607700232377B9E72368FF225A6203201B
:1036F000607700232377B1E70220AFE700000020C6
:10370000D34D6210003C0140704700285AD010B5DC
:103710000446436A33B94368B3F5827F05D000237A
:10372000C36102E00023036143610023A36294F8B4
:103730005130002B40D0022384F8513022681368A6
:1037400023F040031360636803F48273A26802F4F9
:1037500004421343E26802F400621343226902F058
:1037600002021343626902F001021343A26902F4E8
:1037700000721343E26902F038021343226A02F036
:1037800080021343A26A02F40052216813430B60C3
:10379000638B03F00403626A02F010022168134392
:1037A0004B602268D36923F40063D3610020606515
:1037B000012384F8513010BD84F850302046FEF7C4
:1037C00019F8B8E70120704710B50446026813697C
:1037D00023F44053C1680B431361836802691A43A1
:1037E00043691A43C3691A430168CB6823F416433B
:1037F00023F00C031343CB600268536923F4407336
:1038000081690B4353610368314A934206D002F544
:103810008062934202D0FFF709FC01E0FFF716FC3B
:10382000E369B3F5004F29D00021031849411B1863
:1038300041F10001C90041EA5371DB0018186368C7
:103840004FEA83024FEA937341F10001FDF796FAC4
:10385000204AA2FB00314909642303FB11031B0129
:103860003233A2FB03235B0903F0F00202EB0112E7
:1038700003F00F03216813448B6010BD002302186E
:1038800043EB0301121841F10001C90041EA5271F2
:10389000D200101841F10001626892185B41FDF7F7
:1038A0006DFA0C4AA2FB00314909642303FB1103A2
:1038B000DB003233A2FB03235B095A0002F4F872E7
:1038C00002EB011203F00703216813448B60D4E775
:1038D000001001401F85EB5158B310B5044690F815
:1038E0003D300BB3242384F83D302268D36823F4A1
:1038F0000053D3602046FFF767FF2268136923F463
:10390000904313612268536923F02A0353612268AC
:10391000D36843F40053D36000202064202384F84C
:103920003D3084F83E3010BD80F83C30FDF79AFF02
:10393000D8E7012070470000DFF834D00D480E4969
:103940000E4A002302E0D458C4500433C4188C42F9
:10395000F9D30B4A0B4C002301E013600432A2425E
:10396000FBD3FDF7D5FF01F04DFBFDF7F9FD7047E7
:1039700000000120000000204C05002078670008AE
:103980004C0500203C0A0020FEE77FB500241023F0
:10399000CDE90234036815469E6912686B46CDE98D
:1039A0000044B0479DF8043003F00603062B03BF24
:1039B000009B2B600120204604B070BD009890420F
:1039C0000CBF06200120704710B5034B036004466E
:1039D00000F0D1F8204610BD7C63000810B5044605
:1039E000FFF7F2FF2046082100F042F8204610BD04
:1039F0002DE9F0411F46DDE90834DDF818809845CF
:103A00000646154607D1079900F0B8F818B1657158
:103A10000020BDE8F0813946304600F0AFF80028BC
:103A2000F6D00123C4F800802571A371F0E738B502
:103A300015461C4600F0A2F820B10823E3600623D7
:103A40002560237138BD2DE9F04105460C46164628
:103A50001F4600F093F848B9032F07D82368324671
:103A6000294620465B69BDE8F0411847BDE8F08172
:103A700000F09AB810B5034B03600446FFF7A4FFAB
:103A8000204610BDDC63000810B50446FFF7F2FFC6
:103A900020460C21FFF7ECFF204610BD2DE9F04138
:103AA000DDF81880904506460F4615461C460BD09B
:103AB000B0680368CDF818801E6A2A462346394646
:103AC000B446BDE8F0416047194600F057F80028B9
:103AD000EED00620BDE8F0812DE9F14F0D461946E4
:103AE000DDE90A4BDDE90CA681461746984600F051
:103AF00045F890B1002D3460377109DB2C44A245A4
:103B000014BF01240624B471002001B0BDE8F08F79
:103B10000235F9D10123B371F6E7544506D1594670
:103B2000484600F02BF808B17771EDE7D9F80800A6
:103B30000368CDE90CA6CDE90A4BDC693A46434659
:103B40002946A44601B0BDE8F04F60472DE9F04199
:103B500007460C4615461E46FFF769FF48B9B86888
:103B600003689F692A4633462146BC46BDE8F041BA
:103B70006047BDE8F081704700207047814208B57A
:103B80000ED0406803782A2B0CD049680B782A2B7A
:103B900008BF0131FCF704FBB0FA80F0400908BD12
:103BA0000120FCE70020FAE701F0B4B900000000B2
:103BB00051EC100B204A21F00043934226D900B566
:103BC0001E4A934285B008D902460B46FCF75CFCBE
:103BD00041EC100B05B05DF804FB684600F024FAD8
:103BE00000F0030001289DED021B9DED000B12D09B
:103BF000022817D090B100F023F853EC102B03F1FA
:103C0000004300EE903A05B05DF804FB9FED081B01
:103C1000002000F049B900F013F8DBE7012000F0C4
:103C200043F9D7E7012000F03FF9E6E7AFF3008062
:103C30000000000000000000FB21E93FFFFFEF7FD4
:103C40002DE9F04F57EC106B27F00048B8F1795F81
:103C50005BEC11AB85B06FD230463946FDF766F8A4
:103C6000002800F0F08032463B4630463946FCF7EB
:103C7000C3FD77A3D3E9002304460D46FCF7BCFD42
:103C800075A3D3E90023FCF701FC22462B46FCF781
:103C9000B3FD73A3D3E90023FCF7F6FB22462B46C2
:103CA000FCF7AAFD70A3D3E90023FCF7EFFB224643
:103CB0002B46FCF7A1FD6EA3D3E90023FCF7E4FB40
:103CC00022462B46FCF798FD6BA3D3E90023FCF7B3
:103CD000DDFB22462B46FCF78FFDCDE900016C4B46
:103CE000002220462946FCF787FDDDE900238046B7
:103CF000894620462946FCF77FFD52465B4604462E
:103D00000D4630463946FCF777FD02460B46204605
:103D10002946FCF7B9FB02460B4640464946FCF7EC
:103D2000B3FB02460B4600205A49FCF7ADFB41ECC1
:103D3000100B05B0BDE8F08F32463B4630463946A1
:103D4000FCF75AFD42A3D3E9002304460D46FCF7D5
:103D500053FD41A3D3E90023FCF798FB22462B46F1
:103D6000FCF74AFD3EA3D3E90023FCF78DFB224676
:103D70002B46FCF741FD3CA3D3E90023FCF786FB6F
:103D800022462B46FCF738FD39A3D3E90023FCF784
:103D90007BFB22462B46FCF72FFD37A3D3E90023FC
:103DA000FCF774FB2B462246FCF726FD3A4B984560
:103DB000CDE9000193D9394B98453BD8A8F50013BC
:103DC00000223449002090469946FCF75DFBCDE97E
:103DD00002012F4B002220462946FCF70DFD4246EA
:103DE0004B46FCF751FBDDE900238046894620461F
:103DF0002946FCF701FD52465B4604460D46304617
:103E00003946FCF7F9FC02460B4620462946FCF7EA
:103E10003BFB02460B4640464946FCF735FB024653
:103E20000B46DDE90201FCF72FFB41EC100B05B05E
:103E3000BDE8F08F9FED127BDFF864908DED027B83
:103E40004FF00008C5E79FED100B05B0BDE8F08FFF
:103E5000D43888BEE9FAA8BDC4B1B4BD9EEE213EF7
:103E6000AD529C804F7E923E9015CB19A001FA3E38
:103E70007751C1166CC1563F4C5555555555A53F08
:103E8000000000000000E73F000000000000F03FDD
:103E90000000E03F0000F03F3233D33F0000E93F35
:103EA0000000D23F000000002DE9F04F55EC104B10
:103EB00025F0004385B0B3F1795F8DED001B80469E
:103EC00006D220462946FCF731FF002800F08A8000
:103ED00022462B4620462946FCF78EFC06460F4616
:103EE00032463B4620462946FCF786FC43A3D3E9ED
:103EF000002382468B4630463946FCF77DFC41A3C1
:103F0000D3E90023FCF7C0FA32463B46FCF774FCC9
:103F10003EA3D3E90023FCF7B9FA32463B46FCF74F
:103F20006BFC3CA3D3E90023FCF7AEFA32463B46D8
:103F3000FCF762FC39A3D3E90023FCF7A7FACDE92B
:103F40000201B8F1000F35D0DDE900012A4B002253
:103F5000FCF752FCDDE9022380468946504659466B
:103F6000FCF74AFC02460B4640464946FCF78CFAF1
:103F700032463B46FCF740FCDDE90023FCF784FABF
:103F80001BA3D3E9002306460F4650465946FCF7CB
:103F900033FC02460B4630463946FCF777FA0246B8
:103FA0000B4620462946FCF76FFA41EC100B05B092
:103FB000BDE8F08F02460B4630463946FCF71CFC44
:103FC0000BA3D3E90023FCF75FFA52465B46FCF7EC
:103FD00013FC22462B46FCF759FA41EC100B05B0B6
:103FE000BDE8F08F45EC104B05B0BDE8F08F00BF89
:103FF000495555555555C53F0000E03F7CD5CF5A32
:104000003AD9E53DEB9C2B8AE6E55A3E7DFEB15759
:10401000E31DC73ED561C119A0012A3FA6F81011C2
:104020001111813F000000002DE9F04F53EC102BDF
:104030009B4923F000448C428FB0814640F292802D
:1040400098498C429A462BD8BAF1000F104619466F
:1040500089A3D3E9002340F3B681FCF715FA924B0C
:104060009C4206460F4600F08E8085A3D3E90023CC
:10407000FCF70AFA04460D4622462B4630463946DE
:10408000FCF702FA7EA3D3E90023FCF7FDF9C9E9A6
:104090000201C9E90045012528460FB0BDE8F08FAF
:1040A00082498C4240F2898081498C4262D84FEA31
:1040B0002458A8F21648A4EB08571046394616466D
:1040C000FCF734FEFCF72EFB02460B463046394621
:1040D000CDE90823FCF7D8F9764B0022FCF78CFBDE
:1040E0000F460646FCF722FEFCF71CFB02460B4679
:1040F00030463946CDE90A23FCF7C6F96D4B00225C
:10410000FCF77AFBCDE90C010EAD03240026002755
:1041100075E9020132463B46A346013CFCF7D4FD5B
:104120000028F5D1644B01930223009342465B467D
:10413000494608A800F0A4F9BAF1000F0546ABDA29
:10414000D9F80410D9F8002001F10043D9F80C1077
:10415000C9E90023D9F8082001F10043C9E9022385
:10416000454299E70020002189ED000BC9E90201D1
:10417000002591E710461946FCF786F9C9E90201C6
:10418000C9E90001F4E740A3D3E90023FCF77CF977
:104190003FA3D3E9002306460F46FCF775F9044612
:1041A0000D4622462B4630463946FCF76DF938A3BA
:1041B000D3E90023FCF768F969E700F057F957ECF9
:1041C000106B35A3D3E9002330463946FCF714FBC6
:1041D0003A4B0022FCF75AF9FCF7A8FD0546FCF71C
:1041E000A1FA02460B46CDE9062323A3D3E9002317
:1041F000FCF702FB02460B4630463946FCF744F911
:104200001FA3D3E90023CDE90201DDE90601FCF794
:10421000F3FA1F2D06460F46CDE9046752DC284B02
:104220006A1E53F82230A3424CD002460B46DDE909
:104230000201FCF729F906460F4632463B46C9E91A
:104240000067DDE90201FCF71FF9DDE90423FCF753
:104250001BF9BAF1000FC9E90201BFF61DAF07F162
:104260000043C9E9006301F10043C9E902036D425B
:1042700012E700BFAFF3008000004054FB21F93F7C
:104280003163621A61B4D03D0000601A61B4D03D60
:104290007370032E8A19A33B83C8C96D305FE43F56
:1042A000FB21E93F7BD90240FB21F93FFB2139414A
:1042B000FFFFEF7F00007041986400080000E03FBE
:1042C00018640008DDE90423DDE90201FCF7DCF8ED
:1042D000C1F30A53C3EB1453102B4FEA245806467C
:1042E0000F46AADD58A3D3E90023DDE90601FCF758
:1042F00083FA06460F4632463B46DDE90201FCF7EB
:10430000C3F802460B46DDE90201CDE90223FCF7C2
:10431000BBF832463B46FCF7B7F84DA3D3E9002380
:1043200006460F46DDE90601FCF766FA32463B46D3
:10433000FCF7AAF803460C46CDE904341A46DDE939
:1043400002012346FCF7A0F8C1F30A53A8EB0308C7
:10435000B8F1310F06460F467FF76FAF3FA3D3E9A1
:104360000023DDE90601FCF747FA06460F46324610
:104370003B46DDE90201FCF787F802460B46DDE922
:104380000201CDE90223FCF77FF832463B46FCF7F9
:104390007BF834A3D3E9002306460F46DDE9060186
:1043A000FCF72AFA32463B46FCF76EF803460C4609
:1043B000CDE904341A46DDE902012346FCF764F82E
:1043C00006460F4639E7FCF761F8234B9C42064648
:1043D0000F4618D01AA3D3E90023FCF757F8044678
:1043E0000D4622462B4630463946FCF74DF814A3BD
:1043F000D3E90023FCF74AF8C9E90045C9E90201FD
:104400004FF0FF3548E610A3D3E90023FCF73EF850
:104410000FA3D3E9002306460F46FCF737F80446FE
:104420000D4622462B4630463946FCF72DF808A3A8
:10443000D3E90023FCF72AF8DEE700BFAFF30080E2
:104440003163621A61B4D03D0000601A61B4D03D9E
:104450007370032E8A19A33BFB21F93F0000002E45
:104460008A19A33BC14920259A837B3951EC100B53
:10447000024621F0004343EC102B7047000000007F
:104480002DE9F04FADF51B7D9E460C91BC4BA499D8
:10449000049053F82130059312F1140F0EF1FF33FD
:1044A0000393C0F25783B749D31E81FB0301DB1787
:1044B000C3EBA10307930133A3EB8303DB00D31802
:1044C0000D93079A039BD41A059AD7181CD4013769
:1044D000A59E274422AD4FF000084FF00009F24698
:1044E00008E056F82400FCF71DF90134BC42E5E869
:1044F000020108D0002CF4DA013440464946BC429F
:10450000E5E80201F6D1D646059B002BB8BF4FEA7D
:10451000CE0638DB22AB03EBCE0A059BDDF80C9010
:10452000CDF808E073440193049B0DF5E47B4FEA5A
:10453000CE0603EBCE084B460696D9469B46039B18
:10454000002BC0F2AB81049E57460024002577E97A
:104550000223F6E80201FCF74FF902460B4620461B
:104560002946FBF793FF464504460D46EFD1019BD4
:104570000BF1010B9B45E9E802450AF1080ADED17F
:10458000DDF808E0069E049B059A0D9F33440893CE
:104590000EAB03EB8203043B09930EAB03EB8206E5
:1045A000CDE90A6E93469AAB03EBCB03BBF1000F48
:1045B00053E928452BDD0DF5E47A0AEBCB080DF124
:1045C00038090197704B002220462946FCF714F960
:1045D000FCF7ACFBFCF7A6F86C4B002206460F4636
:1045E000FCF70AF902460B4620462946FBF74CFF2A
:1045F000FCF79CFB78E9022349F8040B3946304666
:10460000FBF744FFD04504460D46DBD1019F45EC46
:10461000104B384600F068FB55EC104B00224FF071
:104620007F5320462946FCF7E7F841EC100B00F0D9
:10463000E7FB574B51EC100B0022FCF7DDF802466C
:104640000B4620462946FBF71FFF0D460446FCF7A4
:104650006DFB0646FCF766F802460B4620462946E7
:10466000FBF712FF002F8046894640F393800BF141
:10467000FF300EAAC7F1180352F8202042FA03F4C3
:1046800004FA03F3D21AC7F117010EAB42FA01F58F
:10469000002D43F82020264400F3E7800022002369
:1046A00040464946FCF710FB002800F05B82059B62
:1046B0009B450DDD0EAB0A9803EB8B03002253F8EC
:1046C000041D834242EA0102F9D1002A40F0EC8045
:1046D000059B0EAA013B52F82330002B40F0D980F5
:1046E000099A012352F8041D01330029FAD00BF175
:1046F00001025B44914607980B99069700EB020A6A
:104700000AF1804AA59802930AF1FF3A594400EB56
:104710008A0A22A800EBC108DDF820B0CDF804A079
:1047200072A901EBC206019B53F8040F0193FBF73A
:10473000F9FF039B002BE8E802011DDB049FC24642
:10474000002400257AE90223F7E80201FCF754F877
:1047500002460B4620462946FBF798FE5F45044675
:104760000D46EFD1029B09F101099945E6E80245A2
:10477000D9DD069F9B4616E700240025F2E700BF1F
:10478000E0650008ABAAAA2A0000703E0000704154
:104790000000204060D10BF1FF330EAA52F82350E5
:1047A000ED15002D7FF77AAFBBF1000F06F1010682
:1047B00040F3678200210EA80C466FF07F4CAE4696
:1047C0000FE001318B4542F8045C6ADD1368083064
:1047D0000131ACEB03038B454FF0010440F8043C7E
:1047E0000BDD024652F8043BA4BBC3F18075002BDD
:1047F000E7D101318B451046F3DC7546002F0DDD06
:10480000012F3BD0022F09D10BF1FF320EAB0EA9C5
:1048100053F82230C3F3150341F82230022D7FF400
:104820003DAF42464B46BE490020FBF72DFE804679
:104830008946002C3FF432AF38469FEDB70B00F0AD
:1048400053FA4046494653EC102BFBF71DFE8046B9
:10485000894623E71046BBE7B24B0022FCF752FA29
:10486000002840F06581054618E7BBF1000F06F10E
:104870000106D8BF00249DDC012FC3D10BF1FF320C
:104880000EAB0EA953F82230C3F3160341F82230C1
:10489000C4E70BF10102914613462CE700240025E2
:1048A00065E675460124A9E70D9B0BF1FF34A3F1E2
:1048B00018020EABCDE9035653F824300D9263B9BC
:1048C0000BF18043013B0EA901EB830353F8041D58
:1048D000013C183A0029F9D00D929FED8F0B0D98ED
:1048E00000F002FA002C59EC108BC0F2D08104F1D8
:1048F000010A0EAB03EB8A054FEACA0272AB8A4F7C
:1049000003EBCA0A0026934655F8040DFBF70AFF8D
:1049100042464B46FBF770FF3B466AE902013246CE
:1049200040464946FBF768FF0EAB9D4280468946EC
:10493000EAD1ABF1080372A95A4601EB030A0DF55F
:10494000947C4FF00009CDE9064263465246A346E7
:10495000CA46DDF81490CDF814C0B9F1000FC0F2CA
:10496000FE80CDE90132DFF8C4811746002600241D
:10497000002501E0564510DCF7E80223F8E80201C3
:10498000FBF73AFF02460B4620462946FBF77EFD21
:104990000136B14504460D46ECDADDE901320BF192
:1049A000FF3BBBF1FF3FE3E802450AF1010AA2F138
:1049B0000802D2D1A49BDDF814C0022BDDE9064227
:1049C00021DC002B00F3018116D10CEB0204002343
:1049D000002265461046194674E90223FBF756FD8E
:1049E000A54202460B46F5D1039911B103F10041EE
:1049F0000B460C99C1E90023049B03F007000DF559
:104A00001B7DBDE8F08FA49B032BF5D1002C00F09B
:104A10004E810CEBC409D9E90056E700CDE90179D4
:104A20000594CDF818904C46674674E902AB2846C9
:104A3000314652465B46FBF729FDA84602460B4627
:104A4000B1465046594615461E46FBF71DFD4246E7
:104A50004B46FBF71BFDBC42C4E90201C4E900560A
:104A6000E3D1DDE90549012CBC46DDF808A0019F32
:104A700000F01D81D9E90045CDE9017C0CF1080B5E
:104A80007AE902672046294632463B46FBF7FEFCA0
:104A9000A046A94604460D4622462B4630463946D6
:104AA000FBF7F2FC42464B46FBF7F0FCD345CAE964
:104AB0000201CAE90045E3D1DDE9017C4FF00008BD
:104AC00007F10804002764440CF110053A464346F8
:104AD00066461046194674E90223FBF7D7FCA54247
:104AE00002460B46F5D107468846B446039BDCE9EF
:104AF0000045DCE90212002B40F08C800C9BC3E9DE
:104B00000045C3E90212C3E90478049B03F00700DF
:104B10000DF51B7DBDE8F08F000000000000F03FA8
:104B20000000F03F0000E03F0000703EA06500087C
:104B3000BBF1000F06F10106C8BF02253FF73AAEF0
:104B400042464B46022565490020FBF79DFC804606
:104B50008946A3E500216FF017030791AFE4002415
:104B600000251CE70D9C49EC108B6042CDE90356F3
:104B700000F0BAF859EC108B594B002240464946D8
:104B8000FCF7C0F800283CD0564B002218344046B1
:104B900049460D94FBF730FEFCF7C8F80546FBF7D5
:104BA000C1FD4F4B0022FBF727FE0B46024649464C
:104BB0004046FBF769FCFCF7B9F80BF101040EABBA
:104BC00043F82B0043F8245087E60CEB0205002342
:104BD000002266461046194675E90223FBF756FC8B
:104BE000AE4202460B46F5D1039951B30C9903F13D
:104BF00000400A604860D6E90001FBF745FC44BB71
:104C000032E040464946FCF791F80EAB5C4643F86B
:104C10002B0062E60C9B2646084605F1004402F193
:104C200000419860C3E900641846D96008F1004368
:104C3000C0E90473049B03F007000DF51B7DBDE87C
:104C4000F08F0C99C1E90023D6E90001FBF71CFCA9
:104C50006CB14CAE0125F6E802230135FBF716FCDA
:104C6000AC42F8DA039B13B101F1004319460C9BE7
:104C7000C3E90201049B03F007000DF51B7DBDE8AD
:104C8000F08F022D7FF40AAD02460B465BE7A49B32
:104C9000022B06DC002B0EDC7FF4AEAE00220023DC
:104CA000A2E6A49B032B7FF4A7AE0DF5947C00270E
:104CB0004FF000081AE7039B43B10C9900224FF014
:104CC0000043C1E90023DDE94A01CDE70C99002248
:104CD0000023C1E90023DDE94A01C8E70000F03FF5
:104CE000000070410000703E38B553EC102B0446B4
:104CF000C3F30A50194678BB23F000411143104614
:104D000029D0194600223A4B3A4DFBF775FDAC42CB
:104D100002460B4653DBC1F30A5036384CF2503C86
:104D2000644523DC044440F2FE7084421EDC002C07
:104D300034DC14F1350F3ADB21F0FF4121F4E001BE
:104D4000363441EA04531046194600222A4BFBF739
:104D500053FD41EC100B38BD40F2FF7C6045DDD1C6
:104D60001046FBF793FB41EC100B38BD002B18A14C
:104D7000D1E9000107DB16A3D3E90023FBF73CFDD3
:104D800041EC100B38BD14A1D1E9000110A3D3E907
:104D90000023FBF731FD41EC100BF3E721F0FF415D
:104DA00021F4E00141EA045343EC102B38BD002B01
:104DB0000BA1D1E9000102DA0BA1D1E9000108A39E
:104DC000D3E90023FBF718FD41EC100B38BD00BF01
:104DD0009C7500883CE4377E9C7500883CE437FE77
:104DE00059F3F8C21F6EA50159F3F8C21F6EA581D1
:104DF00000005043B03CFFFF0000903C000000006A
:104E000051EC100BC1F30A532DE9F041A3F2FF3529
:104E1000132D0C46064632DC002D20DB384B43FABE
:104E200005F801EA080303430F462DD032A3D3E966
:104E30000023FBF72BFB00220023FBF76DFF40B1A3
:104E4000002C03DA4FF480132B411F4427EA080497
:104E500000262346324643EC102BBDE8F08126A302
:104E6000D3E90023FBF712FB00220023FBF754FFDA
:104E70000028EED0002C2ADB00263446E9E7332D4B
:104E800006DDB5F5806F1BD041EC100BBDE8F0815D
:104E9000A3F213434FF0FF37DF400742F4D016A3CD
:104EA000D3E90023FBF7F2FA00220023FBF734FFDB
:104EB0000028CED0002C334610DB23EA0706C8E7D3
:104EC00002460B46FBF7E2FA41EC100BDEE724F05A
:104ED000004426430DD14FF00044BAE7142D06D00C
:104EE000C5F134050122AA401344B342E5D201348E
:104EF000E3E7044C0026ACE79C7500883CE4377E71
:104F0000FFFF0F000000F0BF002301461A461846BD
:104F100000F0C6B8024B0146186800F067B900BF40
:104F200020040020014800F0A9B800BF9C08002020
:104F3000014800F0A5B800BF9C080020830730B5E9
:104F400047D0541E002A3ED0CAB2034601E0013CBD
:104F500039D303F8012B9D07F9D1032C2CD9CDB2FD
:104F600005EB05250F2C05EB054535D9A4F11002FD
:104F700022F00F0C03F1100EE6444FEA121C1A4601
:104F8000156055609560D56010327245F8D10CF10E
:104F9000010214F00C0F03EB021204F00F0C13D0FB
:104FA000ACF1040323F003030433134442F8045B1D
:104FB0009A42FBD10CF003042CB1C9B21C4403F893
:104FC000011B9C42FBD130BD64461346002CF4D13A
:104FD000F9E703461446C0E71A46A446E0E700BFD7
:104FE00038B5074D0022044608462A6001F056F9FC
:104FF000431C00D038BD2B68002BFBD0236038BD8C
:105000009808002070B50F4B0F4DAB42A3EB05067F
:1050100007D0B610002455F8043B01349847A64247
:10502000F9D801F04BF9094D094B5E1BAB424FEA31
:10503000A60606D0002455F8043B01349847A64242
:10504000F9D870BD686700086867000868670008DD
:105050007467000838B5074D074C2C1BA41005D009
:10506000013C55F8043D9847002CF9D1BDE8384083
:1050700001F02AB97867000874670008704700BF1C
:10508000704700BF082802D14FF48050704708B520
:1050900000F0AAF9162303604FF0FF3008BD00BFEF
:1050A0002DE9F8431B4D0646286898460F46914661
:1050B000FFF7E4FF184B1C681CB3286865681F2DB8
:1050C00022DC4EB96B1C0235636044F82570FFF793
:1050D000D7FF0020BDE8F88304EB85010123C1F868
:1050E0008890D4F88821AB401A43022EC4F8882156
:1050F000C1F80881E6D1D4F88C211A43C4F88C2178
:10510000E0E7064C1C60D8E7FFF7BAFF4FF0FF302E
:10511000E0E700BF48050020340A0020A408002072
:10512000024B13B10248FFF7EFBE704700000000CA
:10513000555000082DE9F843064608208946FFF738
:10514000A1FFDFF8A48005463046FFF7EBFED8F854
:1051500008305F6827F00307A7F11104A4EB0904E6
:105160002C44B4FBF5F4013C05FB04F4A54208DC37
:1051700000213046FFF734FFD8F808303B4498420E
:1051800005D03046FFF7D4FE0020BDE8F883614229
:105190003046FFF725FF01300FD0114AD8F808300C
:1051A0003F1B47F001075F60136830461B1B13600D
:1051B000FFF7BEFE0120BDE8F88300213046FFF76F
:1051C0000FFFD8F80820831A0F2BDADD43F0010314
:1051D0005360044B02491B68C01A0860D1E700BF46
:1051E000340700200C0000201800002000297CD08B
:1051F0002DE9F0410C468046FFF794FE54F8043C3C
:10520000764FA4F1080523F001016818BE684268D2
:10521000864222F0030200F08380DE07426000EB4A
:10522000020C33D454F8084CDCF804302D1B214414
:10523000AC6807F1080C644503F0010364D0D5F8AD
:105240000CE0C4F80CE0CEF80840002B00F08180A0
:1052500041F001036B600160B1F5007F22D27868F4
:10526000CB080122490901338A40024357F8331021
:105270007A6007EBC302083AC5E9021247F83350D7
:10528000CD604046BDE8F041FFF752BEDCF8043087
:10529000DB072BD541F00103B1F5007F44F8043C56
:1052A0000160DCD3B1F5206F4FEA512353D28B0953
:1052B00003F1390003F13802C300F818FB5808382D
:1052C000984203D163E09B68984204D05A6822F068
:1052D00003028A42F7D8D868C5E902308560DD60EC
:1052E0004046BDE8F041FFF723BE7047114407F187
:1052F000080C836863453FD0C268DA60936041F070
:1053000001036B606950A7E7002B61D10A44D0E923
:105310000213CB60996042F001036B60AA50B0E7C2
:10532000DB070A4407D454F8083CED1A1A44D5E9BF
:105330000213CB60996042F001036B60284BBD60A3
:105340001B6893429DD8274B40461968FFF7F2FE31
:1053500097E71144CDE7142B08D9542B1FD80B0B1A
:1053600003F16F0003F16E02C300A6E703F15C00D6
:1053700003F15B02C300A0E741F001033D617D61E1
:10538000C5F808C0C5F80CC06B60695079E779684A
:105390009210012404FA02F20A437A609CE7B3F502
:1053A000AA7F06D8CB0B03F1780003F17702C30084
:1053B00083E740F25452934206D88B0C03F17D00F0
:1053C00003F17C02C30078E74FF47E737E2274E71A
:1053D00041F001036B60016053E700BF180000203B
:1053E000100000205C070020014B1868704700BFC8
:1053F000200400202DE9F04786468C460846089E8A
:10540000154674461946002B40F0C2808542B2FA18
:1054100082F245D94AB1C2F1200300FA02FC2EFA09
:1054200003F3954043EA0C0C94404FEA154EA8B2A2
:10543000BCFBFEF8230C0EFB18CC08FB00F943EA7A
:105440000C43994528D9EB1808F1FF3704D2994548
:1054500002D9A8F102072B44A3EB0903A4B2B3FBC2
:10546000FEFC0EFB1C330CFB00F044EA0344A0429C
:1054700014D92C190CF1FF3304D2A04202D9ACF19B
:1054800002032C44241A43EA07401EB1D4400023EF
:1054900034607360BDE8F0874746DDE76346F1E7B7
:1054A00092BB431B01214FEA154EAFB2B3FBFEFC8A
:1054B000200C0EFB1C330CFB07F840EA0343984515
:1054C00062D9EB180CF1FF3004D2984502D9ACF147
:1054D00002002B44A3EB0803A4B2B3FBFEFC0EFBBB
:1054E0001C330CFB07F744EA0344A7424ED92C199E
:1054F0000CF1FF3304D2A74202D9ACF102032C44D1
:10550000E41B43EA0040C0E7C2F1200320FA03F1A4
:10551000954090402EFA03F303434FEA154EAFB285
:10552000B1FBFEFC0EFB1C10190C0CFB07F841EA4A
:105530000041884504FA02F422D969180CF1FF30C1
:1055400004D2884502D9ACF102002944A1EB08013C
:105550009BB2B1FBFEFC0EFB1C110CFB07F743EAF0
:1055600001439F420ED9EB180CF1FF3104D29F4248
:1055700002D9ACF102012B44DB1B41EA004192E766
:105580006046E3E76146F7E76046A3E76346B7E7AF
:10559000834206D916B9002108467BE7C6E900E038
:1055A000F9E7B3FA83F78FB9834201D3724508D87C
:1055B000BEEB020460EB030301209C461EB90021F0
:1055C00068E73846FAE7C6E9004CF8E7C7F1200C6F
:1055D000BB4022FA0CF41C432EFA0CF120FA0CF317
:1055E000B84001434FEA14490EFA07F5B3FBF9F846
:1055F0001FFA84FE09FB18300B0C08FB0EFA43EA75
:1056000000439A4502FA07F240D9E31808F1FF3047
:1056100004D29A4502D9A8F102002344A3EB0A035D
:1056200089B2B3FBF9F809FB183308FB0EFE41EA17
:1056300003418E452CD9611808F1FF3304D28E4501
:1056400002D9A8F10203214443EA0040A0FB0298DA
:10565000A1EB0E014145CE46434602D306D14D454E
:1056600004D2B9EB020E68EB04030138002EA6D079
:10567000B5EB0E0261EB030101FA0CFC22FA07F311
:105680004CEA0303F940C6E9003198E74046C5E714
:105690004346D9E703685A004CBF43F0004323F068
:1056A0000043184470472DE9F0470546164621B3DC
:1056B0004F1EB8464FF0000909EB080404EBD47400
:1056C000641005EBC4010846FFF7E4FFA7424FEA68
:1056D000C40A15D0B04204D9A1450DD004F1FF3859
:1056E000EAE70AF108002844FFF7D4FF0138B04286
:1056F00003D204F10109DFE700210846BDE8F08785
:10570000B042E9D8F9E70000012806D0022806D007
:105710000028044818BF002070470348704703481A
:10572000704700BF155D00081B5D0008215D000883
:105730001F4B37B504468D1E4BB101A92846AFF368
:10574000008048B900230920236103B030BD194807
:10575000194B1B1ADB10019301992A46FFF7A3FF8F
:1057600001460028EED0FFF795FF4B68A064012B9F
:105770001BD0002B01F104000EDA0123C4E913034E
:105780000368002B0CDAC3F30360FFF7BDFF031EB1
:105790000CBF09200020D7E7FFF77CFF0023EDE7CF
:1057A000FFF778FF03460020CEE700230520CBE774
:1057B000000000003866000868670008036810B53C
:1057C0000446D80706D413F0020F04F1500018D095
:1057D000FBF700FB2368590703D404F1D800FBF75B
:1057E00001FB23681A0703D404F5AC70FBF702FB36
:1057F0002368DB0608D404F5EC70BDE81040FBF725
:105800003DBBFBF7DFFAE5E710BD0346006800B1DA
:1058100018447047704770B505460C46216C284601
:10582000FFF786FF064608B100F0DCFC236C6B61D5
:1058300022462B692946012098470828EED00728E0
:10584000F2D13046216CFFF7E5FF201DFBF7AEFAE1
:105850002DE9F0470C1DD0F80C90D0F818A00746A1
:1058600016460FCCADF5767D03AD0FC50FCC0FC539
:105870000FCC0FC594E80F000DF1080885E80F0064
:105880000025C8F80050D8F840103846FFF750FF00
:105890000936F6B2044668BBD8F840307B614FF455
:1058A000F47241467CA8FBF759FB3B697CAA394658
:1058B000304698478A9B0546C8F848303A46CDE9B5
:1058C000008A3B4631460120C847C0B9C4B94FF4ED
:1058D000F4727CA94046FBF741FB082D2646D2D046
:1058E000072D0CD12046D8F84010FFF793FF03A8EE
:1058F000FBF75CFAD8F8383046F01006DCE70924EC
:1059000020460DF5767DBDE8F087F0B5CB6B0B64D6
:105910000D1D06460F460FCDFBB001AC0FC40FCDD9
:105920000FC40FCD0FC495E80F0084E80F004FF0AF
:10593000FF33009310993046FFF7FAFE78B93369C8
:105940006A463146984708280446F3D06846FFF770
:1059500035FF062C03D139463046FFF75CFF09209E
:105960007BB0F0BD10B48261DA6BC16010BC1A6408
:1059700019460022FFF76CBF70B5C66843690B6417
:1059800004460D4626B10122FFF762FF00F02AFC13
:1059900003690A46014602209847072805D00828CF
:1059A000F4D129462046FFF736FF3046296CFFF731
:1059B00031FF281DFBF7FAF9C2680AB9FFF7A5BF46
:1059C000CA6B0A640022FFF743BF30B5039C052968
:1059D00011D8DFE801F005031003030E012030BDEC
:1059E0004BB90F2A07D800EB8200436823600020E0
:1059F000F5E7436CFAE70220F1E71FB503AB00932C
:105A000000230A461946FFF7E0FF039805B05DF84A
:105A100004FB30B5039C052912D8DFE801F005032B
:105A20001103030E012030BD53B90F2A08D800EB33
:105A30008200236843600020F5E723684364FAE7A7
:105A40000220F0E71FB503AB0093002303920A4640
:105A50001946FFF7DEFF05B05DF804FBF0B5D36B28
:105A60001364141D06460F460FCCADF5117D17AD1E
:105A70000FC50FCC0FC50FCC0FC594E80F0085E8FC
:105A80000F004FF0FF33169326996846FFF750FE3C
:105A900090B90C2116A86A46FFF7D4FF394616A81C
:105AA000B04748B9049B16AA6946082098470528BC
:105AB000044602D00928E7D1092416A8FFF77EFE84
:105AC00020460DF5117DF0BD2DE9F04FCD6C87B06E
:105AD000174655F8042B04950C4600F003099A4626
